:020000004B298A
:1000040083120800F90003088301E3000408E400F4
:100014000A08E5008A017A08EC007B08EF007C08F6
:10002400EE007D08ED007E08EA007F08EB0068081A
:10003400E6006908E7008316320BFE280723C9008F
:10004400B708031D13294908F03A031D822836080E
:10005400B43E84000008CA0005192E284A08013954
:100064008E240038031908290310CA0C05193828EE
:100074004A0801398E240038031908290310CA0CD0
:10008400051942284A0801398E2400380319082921
:100094000310CA0C05194C284A0801398E2400386B
:1000A400031908290310CA0C051956284A080139EE
:1000B4008E240038031908290310CA0C0519602876
:1000C4004A0801398E240038031908290310CA0C80
:1000D40005196A284A0801398E24003803190829A9
:1000E4000310CA0C051974284A0801398E240038F3
:1000F400031908290830B60A3602031C29280829DE
:100104004908553A031DE4283608B43E8400000823
:10011400CA0005198B284A080139C2250038031979
:10012400DE280310CA0C051995284A080139C2258E
:1001340000380319DE280310CA0C05199F284A0841
:100144000139C22500380319DE280310CA0C051929
:10015400A9284A080139C22500380319DE280310EA
:10016400CA0C0519B3284A080139C22500380319F5
:10017400DE280310CA0C0519BD284A080139C22516
:1001840000380319DE280310CA0C0519C7284A08C9
:100194000139C22500380319DE280310CA0C0519D9
:1001A400D1284A080139C22500380319DE2808304D
:1001B400B60A3602031C86283608083A0319FA28B8
:1001C4000030FB284908333A031DF6283608B43EAC
:1001D400840000083C240038031908290830B60AB2
:1001E4003602031CE82808294908CC3A031D0829CB
:1001F40002308316B2000A293208023A031D132979
:100204000723C90024250038031913298316B201D2
:100214008312B701C901C8308316B3008312B60133
:10022400302933270038031928291330C900C90B92
:10023400192983160511831205113F30C900C90B12
:10024400212983160515B201B20A2A298316B2019F
:100254008312B7018316B101C830B3008B10831227
:100264006C08FA006F08FB006E08FC006D08FD00C6
:100274006A08FE006B08FF006608E8006708E900EA
:100284006408840065088A0063088300F90E790E07
:1002940009002030840063305721A0308400BC3032
:1002A4005721682F04068001840A0406031D54297B
:1002B400640000348312E800E91B672969088A0096
:1002C4006808E80A0319E90A820083136918831786
:1002D4006808E80A8400000808006F346E340034AB
:1002E4006F346634663400346F346E342C34003426
:1002F4006F34663466342C3400348312BC01230812
:10030400BE002408BF0020308316B0004F30A10087
:1003140083122008303E8316A2005430A3003030EC
:10032400A400A500A600033083123F02E83003199D
:100334003E02031CA129E730BE000330BF00643035
:10034400C000A430C1003E3010260A30C000A530E1
:10035400C1003E301026C001C00AA630C1003E30A4
:10036400102653308316A7008312220E0F39BC27A0
:100374008316A800831222080F39BC278316A9000C
:100384004330AA00033083122702031CEE292708F6
:10039400FE3E293E8400000E0F39BC278316AB00B5
:1003A40083122708FE3E293E840000080F39BC272B
:1003B4008316AC0083122703293E8400000E0F39F4
:1003C400BC278316AD0083122703293E840000084E
:1003D4000F39BC278316F3293F308316AB00AC00DA
:1003E400AD00AE002330AF008312BD013D08A13E35
:1003F40084000008C0003C082027BC00BD0A0F3060
:100404003D02031CF8293C083F39403E8316B000E6
:1004140020088312031DA20108008312D601D7010C
:10042400D401D501D301A81F242A28179322D2006E
:1004340093225208D30A530203180800B708031D75
:1004440008001A2A281C272A28169322A7000230FB
:100454002702031C312A0E302702031C332AA81456
:1004640008009322D8005308293E840058088000CD
:100474002708D30A5302B7080318432A0319332A57
:10048400B7080319472A281508005308FE3E293ED9
:1004940084000008D8005303293E84000008D500D6
:1004A4005808D4005608DC005708DD002708DE0091
:1004B400DB247A08D6007B08D700D3012708D800AC
:1004C400D901FE30D8070318D90AFF30D9075308D9
:1004D400DA00DB015B08803AFA005908803A7A02B4
:1004E400031D762A58085A020318892A83125608CB
:1004F400DC005708DD005308293E84000008DE00B4
:10050400DB247A08D6007B08D700D30A602A550872
:100514005706031D8F2A54085606031DA8152814D0
:1005240008008312DC010519952A1530DD00DD0B66
:10053400992A05195C140930DD00DD0B9F2A051D7D
:10054400A12A0519A32A0D30DD00DD0BA72A051900
:10055400DC140930DD00DD0BAD2A051DAF2A0519B9
:10056400B12A0D30DD00DD0BB52A05195C15093003
:10057400DD00DD0BBB2A051DBD2A0519BF2A0D3080
:10058400DD00DD0BC32A0519DC150930DD00DD0BA8
:10059400C92A051DCB2A0519CD2A0D30DD00DD0B36
:1005A400D12A05195C160930DD00DD0BD72A051D9B
:1005B400D92A0519DB2A0D30DD00DD0BDF2A0519E8
:1005C400DC160930DD00DD0BE52A051DE72A0519D7
:1005D400E92A0D30DD00DD0BED2A05195C17093021
:1005E400DD00DD0BF32A051DF52A0519F72A0D3068
:1005F400DD00DD0BFB2A0519DC170930DD00DD0BFE
:10060400012B051D032B5C0808008312CB01093064
:10061400CC00CC0B0B2B05194B140930CC00CC0BA4
:10062400112B051D132B0519152B0D30CC00CC0BEC
:10063400192B0519CB140930CC00CC0B1F2B051D2D
:10064400212B0519232B0D30CC00CC0B272B05199E
:100654004B150930CC00CC0B2D2B051D2F2B051968
:10066400312B0D30CC00CC0B352B0519CB150930B3
:10067400CC00CC0B3B2B051D3D2B05193F2B0D301E
:10068400CC00CC0B432B05194B160930CC00CC0BFA
:10069400492B051D4B2B05194D2B0D30CC00CC0BD4
:1006A400512B0519CB160930CC00CC0B572B051D4B
:1006B400592B05195B2B0D30CC00CC0B5F2B051986
:1006C4004B170930CC00CC0B652B051D672B051986
:1006D400692B0D30CC00CC0B6D2B0519CB170930D1
:1006E400CC00CC0B732B051D752B4B080800831213
:1006F400BF00C2008030C3006F30C4000130C500A9
:10070400ED257B087A04031D8C2B0130D427A3012B
:10071400A40108003F08C2008030C3007230C40046
:100724000130C500ED257B087A04031D9E2B0030A3
:10073400D427A301A40108003F08C2008030C300ED
:100744007630C4000130C5000330C600C7015D2502
:100754007B087A04031DC22B3F08033EE8237A0872
:10076400C0007B08C10040040319C22B4008A30049
:100774004108A4002008A100BA01BB010130D42F14
:100784003F08C2008030C3007A30C4000130C50085
:100794000430C600C7015D257B087A04031DE62BDF
:1007A4003F08043EE8237A08C0007B08C1004004E7
:1007B4000319E62B4008A3004108A4002008A10067
:1007C400BA01BB010030D42FA81608008312C2005E
:1007D400C301C4010F2C440843040319FD2B0A3040
:1007E400FC00FD014308FA004408FB00E4267E08EF
:1007F400C3007F08C4004208840000088312C500B7
:10080400C601D030C5070318C60AFF30C60745081D
:10081400C3070318C40A4608C407420884003030DA
:10082400000242088400031C1D2C3A300002031C01
:10083400ED2B420884000008733A031D262C44085B
:10084400FB004308FA0008004208840000086D3ADF
:10085400031D392C3C30FC00FD014408FB00430817
:10086400FA00E4267E08FA007F08FB000800FA017B
:10087400FB0108008312D4005030D200FF30D300B3
:100884000519892C540833260310D40CB708031D0A
:10089400003405194B2C540833260310D40CB70824
:1008A400031D00340519542C540833260310D40CAA
:1008B400B708031D003405195D2C540833260310B2
:1008C400D40CB708031D00340519662C54083326CC
:1008D4000310D40CB708031D003405196F2C5408F9
:1008E40033260310D40CB708031D00340519782CE3
:1008F400540833260310D40CB708031D003405191B
:10090400812C54083326B708031D00340134D30B5B
:10091400422CD20B422C00348312CB00CB08031997
:10092400B72C2330CC00CC0B952C0519972C8316AF
:100934000511831205110B30CC00CC0B9F2C8316B0
:10094400051515308312CC00CC0BA62C0519A82C48
:100954000730CC00CC0BAC2C051D00341530CC007A
:10096400CC0BB22C05190134B42C83160511831257
:1009740005110B30CC00CC0BBD2C8316051515309E
:100984008312CC00CC0BC42C0519C62C2330CC000C
:10099400CC0BCA2C0519CC2C0730CC00CC0BD02C9A
:1009A400051900341530CC00CC0BD62C05190134B4
:1009B400D82C83125E08DF00E0016008FB005F08AA
:1009C400FA005C08FA065D08FB06FF307A05DF00D2
:1009D400E0015D08DC00DD016008FB005F08FA004F
:1009E4000430FC000310FB0CFA0CFC0BF42C7A080A
:1009F4008312E10007308A0061085727E2000730BC
:100A04008A005F080F395727620603190D2D01303C
:100A1400DC06C030DD060630FA000310DF0DE00D01
:100A2400FA0B0F2D5F08DC066008DD060310DF0DEE
:100A3400E00D5F08DC066008DD065D08FB005C086D
:100A4400FA0008008312CB00F03A031D482D9322CC
:100A5400CC009322D10110304C02031C3B2D2030DA
:100A64004C024C0803183C2DF03EA13E84000008C3
:100A74003E2D4C08803E8827D1003C2400380319C1
:100A8400452DCC0A2C2D01308316A00083124B086F
:100A94000F3A031D0134CF01D001CC019322CE00C3
:100AA4009322CD004E08C03A031D01344D08AA3AE2
:100AB40003190F220134862D4308E90042085C2102
:100AC40000380319722D4508E90044085C2183129B
:100AD400C8004308E90042085C2148060319802D38
:100AE4004308E90042085C21FA00FB014508E900DB
:100AF40044085C21FA02031CFB030800C20A031920
:100B0400C30AC40A0319C50A831246080319C70392
:100B1400C603460A0319470A031D5E2DFA01FB01A9
:100B240008008312BC01BD013C08A13E84002030B2
:100B34008000BC0A0319BD0A00303D0210300319BD
:100B44003C02031C962DBC01BD013C08C038A22701
:100B5400BE003C08B43E84003E088000BC0A031971
:100B6400BD0A00303D02073003193C02031CA72DC7
:100B74000730BF00B430F9268316BB008312080087
:100B84008312CB00CB080730CD000319DB2DCD0B2E
:100B9400C92D051D00341530CD00CD0BCF2D051901
:100BA40001343230CC0005190134CC034C0FD52D5F
:100BB4000034CD0BDB2D051900341530CD00CD0BE1
:100BC400E12D051901343230CC0005190134CC0370
:100BD4004C0FE72D003483124308E90042085C21DE
:100BE4008312C7004508E9004408C40A0319C50A6A
:100BF4005C214702C600C608031D0A2E4308E9000B
:100C04004208C20A0319C30A5C210038031DED2DF2
:100C14004608FA00FB01FA1BFB0308008312C2001A
:100C24001E2E4208840040088002840A031C8003AC
:100C3400840341088400800A831240088312C3009D
:100C4400C401420884000008FA00840A0008FB007A
:100C540044087B02031D302E43087A02031C08005B
:100C6400132E8312D5005518472E831605118312AF
:100C740005111130D600D60B3D2E831605150B3009
:100C84008312D600D60B442E08000D30D600D60BA6
:100C9400492E0519502EB701B70A08000D30D600A9
:100CA400D60B522E080083120F08BC0039083C02F0
:100CB400BD003C08B900C8303D020318632E3D084E
:100CC400642E3D09BA070318BB0A03303B02D03037
:100CD40003193A02031C08003030BA070318BB0A90
:100CE400FC30BB07B80A08008316B3080319902E1A
:100CF400B30333088312BC0064002830BD00BD0870
:100D0400031908008316330883123C06031D0800E8
:100D14009D30BE00BE0B8C2EBD03812E02206400CC
:100D240063000000FD2F831228080F39013A031DC8
:100D3400AD2EA8172930BE002708FE3EBD003E0791
:100D440084000008BC003E0879233D083E07840067
:100D54003C088000A8132808A204A80108008312F4
:100D6400BC0083169C18B32E83123C0883169B0088
:100D740083123C0883169A0003108B1B03148B13F5
:100D84001C1555309D00AA309D009C141C1103189D
:100D94008B17831208008312C600C5014308460658
:100DA4000139C4000310C60C0310C30CC408031992
:100DB400DD2E8C30C606C50A08304502031CD02E31
:100DC40046080800FE01FF010310FD0CFC0C031C87
:100DD400F22E7A08FE077B0803187B0AFF0703102C
:100DE400FA0DFB0D7C087D0403190034E62E8312F2
:100DF400C000C101C201072F420840078400000857
:100E0400C3004108CD26C100C20A3F084202031CA8
:100E1400FE2E41080800713083168F0081150114DD
:100E2400811401159F01073083129900831615154B
:100E34008113640001130B16831208008312C2008D
:100E44004008C2060830C100C21F2D2F42084207C5
:100E5400473AC2002F2F0310C20DC10B262F4208A0
:100E640008008312CB010330CC00CC0B372F0519BB
:100E7400402FCB0AC8304B02031C352F14304B02D1
:100E8400031C003401348312BC004F2F3C0884003F
:100E94003C0880023D088400800A83123C088400D8
:100EA4003C080002031C0800482F82070034013468
:100EB400013400340134003400340134013400348A
:100EC4000034013400340134013400340D2764301B
:100ED40095279325F627C927E8275526DE27EF27E8
:100EE40000380319772F64006F2F76266F2F831233
:100EF4002408230403190800FF30A307031CA403D8
:100F040024082304031D08002108D42F8312D200CF
:100F140083169C188A2F8312520883169B001C1474
:100F24001A08831208008312BC000430BD009D30EF
:100F3400BE00BE0B9B2FBD0B992FBC0B972F080037
:100F44008312BF0083169C18A42F83123F088316B4
:100F54009B001C141A08831208008312BC0004307E
:100F6400BD009D30BE00BE0BB52FBD0BB32FBC0B17
:100F7400B12F08008312C0000F30C0050A304002B0
:100F840040080318C72F303E0800573E0800831658
:100F9400B2018312B7018316B101C830B3008B17B5
:100FA400831208008312C200A000420C031CDC2F31
:100FB40005160800051208008312380825060319CF
:100FC400E62F3808A500792795267F298316051270
:100FD4008512831205128512080083122408230443
:100FE4000030031D013008003130831290000800E6
:0A0FF4008B1383120800831208001B
:02400E00CC3CA8
:10420000FF00FF00FF00FF00FF00FF00FF00FF00B6
:10421000FF00FF00FF00FF00FF00FF00FF00FF00A6
:10422000FF00FF00FF00FF00FF00FF00FF00FF0096
:10423000FF00FF00FF00FF00FF00FF00FF00FF0086
:10424000FF00FF00FF00FF00FF00FF00FF00FF0076
:10425000FF00FF00FF00FF00FF00FF00FF00FF0066
:10426000FF00FF00FF00FF00FF00FF00FF00FF0056
:10427000FF00FF00FF00FF00FF00FF00FF00FF0046
:10428000FF00FF00FF00FF00FF00FF00FF00FF0036
:10429000FF00FF00FF00FF00FF00FF00FF00FF0026
:1042A000FF00FF00FF00FF00FF00FF00FF00FF0016
:1042B000FF00FF00FF00FF00FF00FF00FF00FF0006
:1042C000FF00FF00FF00FF00FF00FF00FF00FF00F6
:1042D000FF00FF00FF00FF00FF00FF00FF00FF00E6
:1042E000FF00FF00FF00FF00FF00FF00FF00FF00D6
:1042F000FF00FF00FF00FF00FF00FF00FF00FF00C6
:10430000540048002C00720065006C0061007900C8
:104310002C007600310020002000200020000A0040
:1043200068007400740070003A002F002F007400C1
:104330006100700068006F006D0065002E00630072
:104340006F006D000A002800630029003200300071
:1043500031003400200023003000300030000A001B
:10436000200020002000200020002000200020004D
:10437000200020002000200020002000200020003D
:104380002D004700410042002300310033000000AF
:10439000FF00FF00FF00FF00FF00FF00FF00FF0025
:1043A000FF00FF00FF00FF00FF00FF00FF00FF0015
:1043B000FF00FF00FF00FF00FF00FF00FF00FF0005
:1043C000FF00FF00FF00FF00FF00FF00FF00FF00F5
:1043D000FF00FF00FF00FF00FF00FF00FF00FF00E5
:1043E000FF00FF00FF00FF00FF00FF00FF00FF00D5
:1043F000FF00FF00FF00FF00FF00FF00FF00FF00C5
:00000001FF
