:0600000001308A0078299E
:10000800FC0003088301DB000408DC000A08DD00AB
:100018008A017D08E3007E08E2007F08E4006008AA
:10002800DE006108DF00831603135A0B2B298A159B
:100038003B268A11B800A508031D43293808F03A61
:10004800031D90282408DC3E840083130008B900AF
:1000580006182C28390801398A15EE258A11003826
:10006800031938290310B90C06183828390801393A
:100078008A15EE258A110038031938290310B90C9E
:1000880006184428390801398A15EE258A110038DE
:10009800031938290310B90C0618502839080139F2
:1000A8008A15EE258A110038031938290310B90C6E
:1000B80006185C28390801398A15EE258A11003896
:1000C800031938290310B90C0618682839080139AA
:1000D8008A15EE258A110038031938290310B90C3E
:1000E80006187428390801398A15EE258A1100384E
:1000F800031938290310B90C061880283908013962
:100108008A15EE258A110038031938290830A40AFF
:100118002402031C262838293808553A031D0729C4
:100128002408DC3E840083130008B90006189A28C6
:10013800390801398A1597258A1100380319FD28CD
:100148000310B90C0618A628390801398A1597250D
:100158008A1100380319FD280310B90C0618B228B3
:10016800390801398A1597258A1100380319FD289D
:100178000310B90C0618BE28390801398A159725C5
:100188008A1100380319FD280310B90C0618CA286B
:10019800390801398A1597258A1100380319FD286D
:1001A8000310B90C0618D628390801398A1597257D
:1001B8008A1100380319FD280310B90C0618E22823
:1001C800390801398A1597258A1100380319FD283D
:1001D8000310B90C0618EE28390801398A15972535
:1001E8008A1100380319FD280830A40A2402031CC8
:1001F80094282408083A03190329003004290230F6
:100208008316031329293808333A031D23292408A0
:10021800DC3E8400831300088A1184278A11003881
:1002280003191B290830A40A2402031C0B2983166E
:10023800DA018312A501B801C83083133E293808B2
:10024800CC3A031D382902308316DA003A295A08B5
:10025800023A031D43298A153B26B8008A117B26DA
:100268008A110038031943298316DA018312A5017C
:10027800B801C8308316DB008312A40162298A15ED
:100288004A258A11003803195A291330B800B80BC7
:100298004B2983160610831206103F30B800B80B9E
:1002A800532983160614DA01DA0A5C298316DA015F
:1002B8008312A5018316D901C830DB008B10031304
:1002C80083126308FD006208FE006408FF005E08F0
:1002D800E0005F08E1005C0884005D088A005B08B4
:1002E8008300FC0E7C0E09002030840054308D21E0
:1002F8000130E100E030E000543084005B309221AE
:10030800A0308400E4308D218A11572D0406800125
:10031800840A0406031D8A2964000034FD008A113A
:10032800A0218A118000840A04087D06031900347C
:10033800932983120313E000E11BAB29611BB32946
:1003480061088A006008E00A0319E10A8200831341
:10035800611883176008E00A840000080800303438
:100368003134323433343434353436343734383441
:100378003934613462346334643465346634003447
:10038800563465347234203431342E3430342C34BD
:1003980020346234753469346C3474343A3400343B
:1003A80046346534623420343234303420343234C4
:1003B80030343134353400340034003400340034FF
:1003C800003428340A348301AD01AE012D08D03839
:1003D8008A1538258A11AF002D08DC3E8400831366
:1003E8002F088000AD0A0319AE0A00302E0207302C
:1003F80003192D02031CEA290730B000DC308A15E6
:10040800D9258A118316E30083120800E7210030FA
:100418008A11F927AC012C08E0388A1538258A1585
:1004280081278A11AC0A10302C02031C0F2AC43011
:10043800AD000130AE008A155C2540308A11F927DD
:10044800AC012C08F0388A1538258A1581278A11BD
:10045800AC0A10302C02031C252AD430AD00013020
:10046800AE008A155C2D8301B0002E08B006083056
:10047800AF00B01F442A30083007473AB000462A78
:100488000310B00DAF0B3D2A300808008301AE0001
:100498000F30AE050A302E022E080318552A303EBA
:1004A8000800573E08008301AC0120308316B000D5
:1004B8005330A1008312200E0F394A228316A2005E
:1004C800831220080F394A228316A3002030A40083
:1004D8004330A500033083122202031C9D2A220800
:1004E800FE3EB13E84008313000E0F394A22831367
:1004F8008316A60083122208FE3EB13E840000083F
:100508000F394A2283138316A70083122203B13EB0
:100518008400000E0F394A2283138316A800831221
:100528002203B13E840000080F394A228313831640
:10053800A22A3F308316A600A700A800A9002030F1
:10054800AA00AB00AC00AD00AE002330AF008312B0
:10055800AD012D08A13E840083130008AE002C08CD
:100568003722AC00AD0A0F302D02031CAD2A2C082F
:100578003F39403E8316B00020088312031DA001B6
:1005880008008301B100D501D50A5A08D8003108FE
:10059800D70008008301D401D40A1030C52A83018A
:1005A800D4010030C52A830123080F39013A031DFD
:1005B800032DA31783163108D03A031D1D2B831270
:1005C800AC01AC0A2208AD00AE01FE30AD0703183D
:1005D800AE0AFF30AE072C08AF00B0013008803AF1
:1005E800FD002E08803A7D02031DFC2A2D082F02EB
:1005F80003181D2B831203132C08B13E84008313A8
:1006080000080D3A03190F2B2C08B13E840000088E
:100618000A3A031D142B40308A11F9278A11E52A5A
:100628002C08B13E8400831300088A1581278A119B
:10063800E52A83163108D13A031D4B2B00308A1165
:10064800F9278A11AC01AC0A2208AD00AE01FE30D0
:10065800AD070318AE0AFF30AE072C08AF00B00193
:100668003008803AFD002E08803A7D02031D3E2B9B
:100678002D082F0203184B2B831203132C08B13EAD
:100688008400831300088A1581278A11272B831673
:100698003108D23A031D792B40308A11F9278A1183
:1006A800AC01AC0A2208AD00AE01FE30AD0703185C
:1006B800AE0AFF30AE072C08AF00B0013008803A10
:1006C800FD002E08803A7D02031D6C2B2D082F0299
:1006D8000318792B831203132C08B13E840083136B
:1006E80000088A1581278A11552B83163108D33AB9
:1006F800031DA72B10308A11F9278A11AC01AC0A07
:100708002208AD00AE01FE30AD070318AE0AFF3077
:10071800AE072C08AF00B0013008803AFD002E0863
:10072800803A7D02031D9A2B2D082F020318A72B50
:10073800831203132C08B13E8400831300088A1522
:1007480081278A11832B83163108D43A031DD52BB0
:1007580050308A11F9278A11AC01AC0A2208AD0081
:10076800AE01FE30AD070318AE0AFF30AE072C0805
:10077800AF00B0013008803AFD002E08803A7D02B3
:10078800031DC82B2D082F020318D52B8312031322
:100798002C08B13E8400831300088A1581278A112A
:1007A800B12B83163108DA3A031D2C2C8312AC01C5
:1007B800AC0A2208AD00AE01FE30AD070318AE0A40
:1007C800FF30AE072C08AF00B0013008803AFD00BA
:1007D8002E08803A7D02031DF32B2D082F020318E3
:1007E8002C2C831203132C08B13E840083130008B9
:1007F800693A031D032C8A1556278A11292C2C08BF
:10080800B13E840083130008783A031D0F2C8A1523
:10081800F1248A11292C2C08B13E84008313000886
:10082800643A031D1A2CB201B20A222C2C08B13EDC
:1008380084000008633A031D2C2CB2012C0AB13E37
:10084800840000088A152F278A110230AC07DD2B97
:1008580083163108DB3A031DA92C8312AC01AC0ABC
:100868002208AD00AE01FE30AD070318AE0AFF3016
:10087800AE072C08AF00B0013008803AFD002E0802
:10088800803A7D02031D4A2C2D082F020318A92C3B
:1008980083120313B2012C08B13E840083130008AD
:1008A8008A152F27B201B20A2C0AB13E840083139D
:1008B80000088A152F27B201B20A2C08023EB13E61
:1008C8008400831300088A152F27B201B20A2C0866
:1008D800033EB13E8400831300088A152F27B20116
:1008E800B20A2C08043EB13E8400831300088A151E
:1008F8002F27B201B20A2C08053EB13E84008313AB
:1009080000088A152F27B201B20A2C08063EB13E0C
:100918008400831300088A152F27B201B20A2C0815
:10092800073EB13E8400831300088A152F27B201C1
:10093800B20A2C08083EB13E8400831300088A15C9
:100948002F278A110930AC07342C83163108DC3A7A
:100958000319BD2CCD2CD3228A11CD2CCE228A117D
:10096800CD2C33088312D900CD2C33088312DA003A
:10097800CD2C3208803A0319AF2C013A0319B22C56
:100988000B3A0319B52C013A0319B92C3208C522C0
:10099800D80183163108DD3A8312031D012DB201F7
:1009A800831632088A152F278A110230AC002208D4
:1009B800AD00AE01FE30AD070318AE0AFF30AE073A
:1009C8002C08AF00B0013008803AFD002E08803AAC
:1009D8007D02031DF12C2D082F0283120313031827
:1009E800022DB201B20A2C08B13E8400831300081C
:1009F8008A152F278A11AC0ADB2C0313A3132308AB
:100A0800A004A301080083015908AC00AD012D081A
:100A18002902031D112D2C082802031C0800A80117
:100A2800A901D508031D252DD40803190800560867
:100A3800803A7F3E031C0800D603B20118308A159D
:100A48002F2FD80803192E2D260803190800A601F0
:100A5800D80308005608803AAC005708803A2C02A0
:100A680003183B2DD60AB20118308A152F2F5708C4
:100A7800803AAC005608803A2C020318482DD60359
:100A8800B2011C308A152F2FD4080319522DD7080C
:100A9800031D502D1030C52A0030C52AD501080085
:100AA800D7225722072D7130831603138F008A151A
:100AB80056278A1529258A110A228A15F6248A15A5
:100AC800E8248A1575258A1154258A11D508031931
:100AD8006F2D6400652D8A11D6278A11652D830133
:100AE8004F08D000D1015108FE005008FD004D0804
:100AF800FD064E08FE06FF307D05D000D1014E08E8
:100B0800CD00CE015108FE005008FD000430FF0062
:100B18000310FE0CFD0CFF0B8C2D7D08D200083055
:100B28008A0052080020D30008308A0050080F3984
:100B380000208A1153060319A52D0130CD06C030B7
:100B4800CE060630FD000310D00DD10DFD0BA72DEC
:100B58005008CD065108CE060310D00DD10D50080F
:100B6800CD065108CE064E08FE004D08FD000800CF
:100B78008301C701C801C501C601C401A31FD42D43
:100B880023178A15AD26C3008A15AD268A11430896
:100B9800C40A440203180800A508031D0800C82D4C
:100BA800231823168A15AD268A11A20002302202C4
:100BB800031CE22D29302202031CE42DA314080093
:100BC8008A15AD268A11C9004408B13E84008313F2
:100BD800490880002208C40A4402A5080318F72D12
:100BE8000319E42DA5080319FB2D23150800440853
:100BF800FE3EB13E84000008C9004403B13E8400B3
:100C08000008C6004908C5004708CD004808CE00BE
:100C18002208CF0073257D08C7007E08C800C401DC
:100C28002208C900CA01FE30C9070318CA0AFF30E2
:100C3800CA074408CB00CC014C08803AFD004A089A
:100C4800803A7D02031D2A2E49084B0203183F2EC5
:100C5800831203134708CD004808CE004408B13E6C
:100C6800840083130008CF0073257D08C7007E0821
:100C7800C800C40A142E46084806031D452E450818
:100C88004706031DA315231408008301C400831617
:100C980003178C184B2E83120313440803178D0077
:100CA8000313430803178C0083168C1303108B1B44
:100CB80003148B130C1555308D00AA308D008C143D
:100CC8000C1103188B17830108008301C3008316D6
:100CD80003178C186B2E83120313430803178D0018
:100CE80083168C130C1483120C0803130800830159
:100CF800BA00F03A031DA52E8A15AD26BB008A1549
:100D0800AD268A11C00110303B02031C962E2030FC
:100D18003B023B080318972EF03EA13E8400831344
:100D28000008992E3B08803E6926C0008A11842756
:100D38008A1100380319A22EBB0A862E01308316A9
:100D4800A00083123A08AA3A031DBB2EBB013B0838
:100D5800B13E8400831300088A1184278A11003861
:100D68000319BB2E2830BB0A3B02031CAB2E3A08E2
:100D7800553A031DEF2E8A15AD268A1183163106C2
:100D8800031D5D2F8A15AD268A1183163206031DB1
:100D98005D2F8A15AD268A1183163306031D5D2F34
:100DA8008312BB018316310883123B07C1003B083D
:100DB800033EB13E840083130008C0008030410226
:100DC800031CEA2E4008C30041084926BB0A083024
:100DD8003B02031CD62E3A080F3A031D5F2FBE01B3
:100DE800BF01BD018A15AD26BC008A15AD268A1142
:100DF800BB003C08D13A031D072F3B08AA3A031D44
:100E0800072FBC255F2F3D08B13E840083133C08A3
:100E18008000BD0A3D08B13E840083133B08800072
:100E2800BD0A3D08B13E8400831301308000BD0A2D
:100E38008A15AD268A11C2003D08B13E840083138D
:100E4800420880000B30BD0A3D02A50803182F2F69
:100E580003191C2FA508031D5D2FBD013E08CD00F9
:100E68003F08CE003D08033EB13E840083130008CE
:100E7800CF0073257D08BE007E08BF00BD0A08307C
:100E88003D023E08031C332F8316BC0083123F0823
:100E98008316BD003C088A1184278A11003803197B
:100EA8005D2F83163D088A1184278A110038031D97
:100EB8005F2F0030602F0130831208008301C600C5
:100EC8004618762F83160610831206101130C700B5
:100ED800C70B6C2F831606140B308312C700C70B81
:100EE800732F08000D30C700C70B782F06187F2F07
:100EF800A501A50A08000D30C700C70B812F0800FF
:100F08008301C5005030C300FF30C4000618D12F3C
:100F1800450862270310C50CA508031D00340618F0
:100F2800932F450862270310C50CA508031D00343C
:100F380006189C2F450862270310C50CA508031D39
:100F480000340618A52F450862270310C50CA5080C
:100F5800031D00340618AE2F450862270310C50C80
:100F6800A508031D00340618B72F4508622703108B
:100F7800C50CA508031D00340618C02F45086227B4
:100F88000310C50CA508031D00340618C92F450811
:100F98006227A508031D00340134C40B8A2FC30B34
:100FA8008A2F003483160313DB080319F12FDB03A0
:100FB8005B088312AC0064002830AD00AD0803194B
:100FC800080083165B0883122C06031D08009D3059
:100FD800AE00AE0BED2FAD03E22F8A15E1248A1186
:100FE8006400630000008A15DF2C8301B100B201A0
:060FF80080388A152F2F3E
:1010000082070034013401340034013400340034E8
:10101000013401340034003401340034013401342B
:0210200000349A
:1019BE008301080083010800830108008B13830153
:1019CE00080031308301900008008301AC00B201A1
:1019DE008A152F2F8301B20101308A152F2F8316FE
:1019EE000313DA018312A5018316D901C830DB0077
:1019FE008B17831208008301AC000310AC0D03108B
:101A0E00AC0D0310AC0DB2012C0840388A152F2FE7
:101A1E008301AC000430AD009D30AE00AE0B152D31
:101A2E00AD0B132DAC0B112D08008301B10004304A
:101A3E00B2009D30B300B30B222DB20B202DB10B93
:101A4E001E2D08007130831603138F0081150114AB
:101A5E00811401159B018113640001130B1683126F
:101A6E0008008301B000831603178C183A2D8312D9
:101A7E000313300803178D0083168C130C14831276
:101A8E000C08031308008301BA010330BB00BB0B23
:101A9E004E2D0618572DBA0AC8303A02031C4C2D8B
:101AAE0014303A02031C00340134692DB201B20A1B
:101ABE002E08E1002D08AD0A0319AE0A8A119D21E8
:101ACE008A152F27831203132E08E1002D088A1181
:101ADE009D218A150038031908005D2D83010F081A
:101AEE00AC0027082C02AD002C08A700C8302D0230
:101AFE000318AD092D08A8070318A90AAA07031889
:101B0E00AB0A03302B02D03003192A02031C080043
:101B1E003030AA070318AB0AFC30AB07A60A080040
:101B2E008301BA00BA080730BC000319B02DBC0BF4
:101B3E009E2D061C00341530BC00BC0BA42D0618BF
:101B4E0001343230BB0006180134BB033B0FAA2D03
:101B5E000034BC0BB02D061800341530BC00BC0B85
:101B6E00B62D061801343230BB0006180134BB0303
:101B7E003B0FBC2D00348301B700B6013408370685
:101B8E000139B5000310B70C0310B40CB5080319D6
:101B9E00D22D8C30B706B60A08303602031CC52D7E
:101BAE00370808008301B100B201B301E82D3308F4
:101BBE003107840083130008B4003208C225B20036
:101BCE00B30A30083302031CDE2D320808008301ED
:101BDE00BA00BA080319172E2330BB00BB0BF52D24
:101BEE000618F72D83160610831206100B30BB0055
:101BFE00BB0BFF2D8316061415308312BB00BB0BD7
:101C0E00062E0618082E0730BB00BB0B0C2E061C2A
:101C1E0000341530BB00BB0B122E06180134142EE7
:101C2E0083160610831206100B30BB00BB0B1D2E45
:101C3E008316061415308312BB00BB0B242E061818
:101C4E00262E2330BB00BB0B2A2E06182C2E073057
:101C5E00BB00BB0B302E061800341530BB00BB0B7F
:101C6E00362E06180134382E8301BA010930BB0016
:101C7E00BB0B3F2E06183A140930BB00BB0B452E8A
:101C8E00061C472E0618492E0D30BB00BB0B4D2EE1
:101C9E000618BA140930BB00BB0B532E061C552E6A
:101CAE000618572E0D30BB00BB0B5B2E06183A15CF
:101CBE000930BB00BB0B612E061C632E0618652E69
:101CCE000D30BB00BB0B692E0618BA150930BB00D0
:101CDE00BB0B6F2E061C712E0618732E0D30BB001B
:101CEE00BB0B772E06183A160930BB00BB0B7D2EA8
:101CFE00061C7F2E0618812E0D30BB00BB0B852EC9
:101D0E000618BA160930BB00BB0B8B2E061C8D2E87
:101D1E0006188F2E0D30BB00BB0B932E06183A17EC
:101D2E000930BB00BB0B992E061C9B2E06189D2E50
:101D3E000D30BB00BB0BA12E0618BA170930BB0025
:101D4E00BB0BA72E061CA92E3A0808008301CD0155
:101D5E000618AF2E1530CE00CE0BB32E06184D142E
:101D6E000930CE00CE0BB92E061CBB2E0618BD2E8A
:101D7E000D30CE00CE0BC12E0618CD140930CE007C
:101D8E00CE0BC72E061CC92E0618CB2E0D30CE003C
:101D9E00CE0BCF2E06184D150930CE00CE0BD52EFC
:101DAE00061CD72E0618D92E0D30CE00CE0BDD2EEA
:101DBE000618CD150930CE00CE0BE32E061CE52EEF
:101DCE000618E72E0D30CE00CE0BEB2E06184D1654
:101DDE000930CE00CE0BF12E061CF32E0618F52E72
:101DEE000D30CE00CE0BF92E0618CD160930CE00D2
:101DFE00CE0BFF2E061C012F0618032F0D30CE0022
:101E0E00CE0B072F06184D170930CE00CE0B0D2F17
:101E1E00061C0F2F0618112F0D30CE00CE0B152FCE
:101E2E000618CD170930CE00CE0B1B2F061C1D2F0A
:101E3E004D0808008301B6008B1F2C2F8B1306084C
:101E4E000139360486008B17080036088600080014
:101E5E008301B3001330B500B50B332F3308F039BF
:101E6E00B400B208031DB4153408023821278301CB
:101E7E00340821278301330EF039B400B208031D54
:101E8E00B41534080238212783013408212F01307C
:101E9E00831603138600FB308312860008004E273C
:101EAE000F308A151C258A15B20133302F278A155B
:101EBE00B20133302F278A15B20132302F278A15FF
:101ECE00B2012C302F278A15B20106302F278A1522
:101EDE00B2010C302F278A15B20101302F278A1537
:101EEE00B20102302F278A15B2010F302F270F3083
:101EFE008A151C2D8301B100B201B20A2F2F30308A
:101F0E008301AC00912FF030AC070318AD0AD83026
:101F1E00AD07AC0A27302D02103003192C0203181E
:101F2E008A2F2C0881278A153030AC0003302D0201
:101F3E00E83003192C02031CAC2F1830AC07031821
:101F4E00AD0AFC30AD07AC0A9D2F2C0881278A15EF
:101F5E003030AC0000302D02643003192C02031C0B
:101F6E00BE2F9C30AC07031CAD03AC0AB12F2C085E
:101F7E0081278A153030AC0000302D020A3003194B
:101F8E002C02031CD02FF630AC07031CAD03AC0A99
:101F9E00C32F2C0881278A153030AC0000302D025B
:101FAE00013003192C02031CE22FFF30AC07031C77
:101FBE00AD03AC0AD52F2C08812F8301AC002C0E5B
:101FCE000F39B33EE0000130E10060080318E10A6A
:101FDE008A119D218A1581272C080F39B33EE00006
:101FEE000130E10060080318E10A8A119D218A156B
:021FFE00812F31
:02400E00183F59
:10420000FF00FF00FF00FF00FF00FF00FF00FF00B6
:10421000FF00FF00FF00FF00FF00FF00FF00FF00A6
:10422000FF00FF00FF00FF00FF00FF00FF00FF0096
:10423000FF00FF00FF00FF00FF00FF00FF00FF0086
:10424000FF00FF00FF00FF00FF00FF00FF00FF0076
:10425000FF00FF00FF00FF00FF00FF00FF00FF0066
:10426000FF00FF00FF00FF00FF00FF00FF00FF0056
:10427000FF00FF00FF00FF00FF00FF00FF00FF0046
:10428000FF00FF00FF00FF00FF00FF00FF00FF0036
:10429000FF00FF00FF00FF00FF00FF00FF00FF0026
:1042A000FF00FF00FF00FF00FF00FF00FF00FF0016
:1042B000FF00FF00FF00FF00FF00FF00FF00FF0006
:1042C000FF00FF00FF00FF00FF00FF00FF00FF00F6
:1042D000FF00FF00FF00FF00FF00FF00FF00FF00E6
:1042E000FF00FF00FF00FF00FF00FF00FF00FF00D6
:1042F000FF00FF00FF00FF00FF00FF00FF00FF00C6
:10430000540048002C006C0063006400340034004A
:104310002C007600310020002000200020000A0040
:104320003100360078003200200052006500610044
:1043300064007900210020002000200020002000DF
:1043400068007400740070003A002F002F007400A1
:104350006100700068006F006D0065002E00630052
:104360006F006D000A002800630029003200300051
:1043700031003500200023003000300030000A00FA
:10438000FF00FF00FF00FF00FF00FF00FF00FF0035
:10439000FF00FF00FF00FF00FF00FF00FF00FF0025
:1043A0002D0047004100420023003000380000008B
:1043B000FF00FF00FF00FF00FF00FF00FF00FF0005
:1043C0004C0043004400200044006900730070006A
:1043D0006C00610079002000310036007800320066
:1043E0002800630029003200300031003500200031
:1043F000760061006C006B0079002E00650075008E
:00000001FF
