:020000040800F2
:10800000009A0020A98200086782000867820008A1
:10801000678200086782000867820008000000008D
:108020000000000000000000000000006582000861
:108030006582000800000000658200086582000873
:10804000678200086782000867820008678200086C
:10805000678200086782000867820008678200085C
:10806000678200086782000867820008678200084C
:10807000678200086782000867820008678200083C
:10808000678200086782000867820008658200082E
:108090006582000865820008658200086782000822
:1080A000678200086782000867820008678200080C
:1080B00067820008678200086782000867820008FC
:1080C00067820008678200086782000867820008EC
:1080D00067820008678200086782000867820008DC
:1080E00067820008678200086782000867820008CC
:1080F00067820008678200086782000867820008BC
:1081000067820008678200086782000867820008AB
:10811000678200086782000867820008678200089B
:10812000678200086782000867820008678200088B
:1081300010B50C4601460B20F7F7E2FF2146BDE8DB
:1081400010400C20F7F7DCBF01460D20F7F7D8BF31
:1081500010B5144C04202146F7F7D2FF2146062023
:10816000F7F7CEFF4FF400410120F7F7C9FF214692
:108170000520F7F7C5FF32210520F7F7C1FF21469B
:108180001520F7F7BDFF21461220F7F7B9FF21466A
:108190001120F7F7B5FFBDE810404FF4FA51112058
:1081A000F7F7AEBF0000FFFF2DE9F04F87B0FFF7F4
:1081B000CFFF00250026A5F1A00303FB03F71FFA5C
:1081C00085F8A6F1780000FB0074B1B24046FFF7D5
:1081D000AFFFA00000F478700136FFF7B5FFF02E76
:1081E000EFD10135B5F5A07FE4D16C4641F2CB4823
:1081F00014270A264FF0030A4FF00209164BDFF846
:1082000060B093E807000C3384E8070093E80700A8
:1082100006AB03E90700114C0BFB0848C8F30E0539
:1082200095FBFAF303EB430306AAEB1A02EB830375
:1082300053F8182C53F80C3C16441F4496FBF9F6DF
:1082400097FBF9F7B0B2B9B2FFF772FF6800FFF71A
:108250007BFF0134E0E700BFBC820008F3902400FC
:1082600021F17D007047FEE70A4A0B4B9A4203D08A
:108270000A49043A8B4205D30021094B094A93422B
:1082800005D3704752F8040F43F8040BF2E743F8A4
:10829000041BF4E7D4820008000000200000002046
:1082A0000000002000000020684620F007018D46F5
:0C82B00008B5FFF7D9FFFFF777FFFEE7E6
:1082BC000A000000360100008C00000014000000D1
:0882CC0028000000DC000000A6
:04000005080080006F
:00000001FF
