:1008000004EE00F011EE00F00EEC04F00FEE70F0CC
:1008100010EE0FF00EEC04F07BEF3FF0EE6AE550C7
:0A082000E150FCE1E250FAE11200A1
:107E9A0023D00001FF6F040E00010001FD6F0001F5
:107EAA00FF5111D00001FF6F770E00010001FE6F34
:107EBA000001FF5100D003D000F000F000D0000113
:107ECA000001FE2FF9D700010001FD070001FD297D
:107EDA00D8A401D001D0E6D700010001FC070001B7
:107EEA00FC29D8A401D001D0D4D712000001FB6F1D
:107EFA00000E00010001FA6F0001FB510001FB6F47
:107F0A000F0EC16E0001FB51F00E8C16F00E951685
:107F1A00836800010001FAA101D0838000010001F9
:107F2A00FAB101D08390FAC0FBF0D8900001FB337C
:107F3A000001FB31D8A001D08382D8B001D083924E
:107F4A00FAC0FBF0D8900001FB33D8900001FB3354
:107F5A000001FB31D8A001D08384D8B001D083942A
:107F6A00FAC0FBF0D8900001FB33D8900001FB3334
:107F7A00D8900001FB330001FB31D8A001D08386E1
:107F8A00D8B001D0839600010001FA2B0001FB6FE3
:107F9A00C80E00010001FC6F0001FB514DEC3FF0DF
:107FAA000001FB6FC80E00010001FC6F0001FB51CC
:107FBA004DEC3FF00001FB6FC80E00010001FC6FA1
:107FCA000001FB514DEC3FF00001FB6FC80E0001B0
:107FDA000001FC6F0001FB514DEC3FF00001FB6F0B
:107FEA00C80E00010001FC6F0001FB514DEC3FF08F
:067FFA0090D700EF04F037
:020000040030CA
:0E000000E43EFFFEFF719BFFFFFFFFFFFFFFCF
:00000001FF
