:020000040800F2
:10800000009A00204D820008638200086382000805
:108010006382000863820008638200080000000099
:108020000000000000000000000000006182000865
:10803000618200080000000061820008618200087F
:10804000638200086382000863820008638200087C
:10805000638200086382000863820008638200086C
:10806000638200086382000863820008638200085C
:10807000638200086382000863820008638200084C
:10808000638200086382000863820008618200083E
:108090006182000861820008618200086382000832
:1080A000638200086382000863820008638200081C
:1080B000638200086382000863820008638200080C
:1080C00063820008638200086382000863820008FC
:1080D00063820008638200086382000863820008EC
:1080E00063820008638200086382000863820008DC
:1080F00063820008638200086382000863820008CC
:1081000063820008638200086382000863820008BB
:1081100063820008638200086382000863820008AB
:10812000638200086382000863820008638200089B
:10813000024B53F8200040EA810070476482000837
:10814000072910B50A4B02DC53F8203004E053F83D
:10815000203001F00701043389000F20884012FA13
:1081600001F11C6824EA000040EA0101196010BD19
:1081700064820008064B53F8203001201AB110FA2F
:1081800001F11961704710FA01F15961704700BFA0
:108190006482000801228A40044B53F820309B6817
:1081A0001A420CBF00200120704700BF6482000803
:1081B00070B51446022206460D46FFF7C1FF304651
:1081C0002946E2B2BDE87040D4E707B501200A2194
:1081D0000246FFF7EDFF002301E0019B013301930D
:1081E000019A094B9A42F8D901200A210022FFF78F
:1081F000DFFF002301E0019B01330193019A024B51
:108200009A42E3D8F7E700BF3F420F000A4A0B4B00
:108210009A4205D10A4B0AE052F8041B43F8041BAA
:1082200008498B42F8D3F5E7002243F8042B064AAD
:108230009342F9D3704700BF8082000800000020FD
:10824000000000200000002000000020684620F010
:1082500007018D4601B5FFF7D9FFFFF7B6FFFEE72F
:108260007047FEE700080140000C0140001001408B
:108270000014014000180140001C01400020014092
:04000005080080006F
:00000001FF
