:020000040800F2
:10800000009A002029820008458100085581000857
:108010006581000875810008858100080000000066
:10802000000000000000000000000000E5810008E2
:10803000E581000800000000E5810008E1820008F9
:10804000E7810008E7810008E7810008E781000870
:10805000E7810008E7810008E7810008E781000860
:10806000E7810008E7810008E7810008E781000850
:10807000E7810008E7810008E7810008E781000840
:10808000E7810008E7810008E7810008E581000832
:108090003D820008E5810008E5810008E7810008CD
:1080A000E7810008E7810008E7810008E781000810
:1080B000E7810008E7810008E7810008E781000800
:1080C000E7810008E7810008E7810008E7810008F0
:1080D000E7810008E7810008E7810008E7810008E0
:1080E000E7810008E7810008E7810008E7810008D0
:1080F000E7810008E7810008E7810008E7810008C0
:10810000E7810008E7810008E7810008E7810008AF
:10811000E7810008E7810008E7810008E78100089F
:10812000E7810008E7810008E7810008E78100088F
:1081300008B513460A460146014802F0B7FEFEE7BD
:108140009823010808B5024802F0B0FEFEE700BF20
:10815000B923010808B5024802F0A8FEFEE700BFF7
:10816000C623010808B5024802F0A0FEFEE700BFE2
:10817000D923010808B5024802F098FEFEE700BFC7
:10818000EC23010808B5024802F090FEFEE700BFAC
:10819000FE23010800B59FB000F059F802F08EFBF5
:1081A000684604F0FFFD01220021684604F0E2FD6C
:1081B000684600F0C1F9002344F645421946684676
:1081C00005F054FB00220121684600F04BFB02F051
:1081D0003DFC024618B10221684600F043FB002234
:1081E0000321F1E77047FEE70A4A0B4B9A4203D09E
:1081F0000A49043A8B4205D30021094B094A9342AC
:1082000005D3704752F8040F43F8040BF2E743F824
:10821000041BF4E7E43F0108000000203C010020BB
:108220004001002029450020684620F007018D46C6
:1082300008B5FFF7D9FFFFF7ADFFFEE707F0A0BCD9
:1082400008B505F085FEBDE8084005F0DFBF10B5B4
:108250001B4C04202146F7F753FF21460620F7F771
:108260004FFF4FF400410120F7F74AFF4FF47A72B5
:10827000144BF0211B680520B3FBF2F3124A013BBB
:108280005360124B83F82310002393600723214689
:108290001360F7F735FF32210520F7F731FF21464C
:1082A0001520F7F72DFF21461220F7F729FFFFF7DA
:1082B000C7FF2146BDE810401120F7F721BF00BFDE
:1082C0000000FFFF4400002010E000E000ED00E0AF
:1082D0000022024B18781A70704700BF400100203E
:1082E000F8B5294C636801336360A36813B1A368D0
:1082F000013BA360E3682BB1E0680138E06008B996
:1083000003F042FE21490620F7F7FAFEC043204B56
:1083100080B21A78C0F30135810BAA42C0B200F0D6
:108320000F0608D01B4F45EA8202BA56002A24DD08
:108330002B2222701D705A78914208D0154D41EAC7
:108340008202AA56002A1BDD3E22227059709A78BA
:10835000B24211D0C70744BF31222270850744BF03
:1083600032222270410744BF33222270020748BFE5
:1083700034229E7048BF2270F8BDDBD02D22D8E792
:10838000E4D03C22E1E700BF400100200000FCFFF8
:108390000000002012240108024B18601A68002A0D
:1083A000FCD17047480100200823C0EB801090FBEF
:1083B000F3F010F1FF3000D3FBE77047FFF7ECBF9D
:1083C000014B1868704700BF4401002040F00100D5
:1083D000004770477047704738B5038B0446DB078A
:1083E00006D4036845F248329D6801460123A84738
:1083F000238B43F00103238338BD0F4B03600F4BE6
:108400009A8901329A810022C2601A6992B903F1F5
:108410001C0159614FF48011996103F1E401C3F823
:10842000DC104FF400211861C3F8E0109A80DA8064
:108430001A815A81704700BF2C2401085001002086
:10844000C0687047014B1868704700BF500100209A
:10845000006908B1436903B970471846F9E7C36872
:1084600070B5064613B90024204670BD1B6923B9B8
:108470000D4A30210D48FFF75BFEF3681C69B442DA
:10848000F1D024B90A4A34210848FFF751FE656942
:108490001DB1B542E8D02C46F9E7064A3B21034816
:1084A000FFF746FE2C46DFE7652401088624010815
:1084B000A2240108F139010838B50446056925B13F
:1084C0002846FFF7F9FF6D69F9E7E3681A69A242E8
:1084D00005D162691A610023E360238338BD204619
:1084E000FFF7BDFF63694361F5E72DE9F0411E46E3
:1084F000C368044688461746069D23B10C4A562198
:108500000C48FFF715FE002330687168221DC4F87F
:108510001C8003C2E560C4E90433278325B12846E3
:10852000FFF796FF10B92C61BDE8F0814461FBE7CD
:10853000A724010886240108014B1860704700BF7A
:1085400050010020024B1B681B1A584258417047CB
:1085500050010020014B1868704700BF50010020F7
:10856000028BD20704D503680022DB68012118477B
:10857000704730B40C4609688D680146AC46204609
:1085800030BC6047012938B5044602D1BDE8384007
:1085900022E7038BDB0706D5036845F248329D6866
:1085A00001460023A847238B23F00103238338BD12
:1085B000436933B11A8B02F00302012A06D05B69CA
:1085C000F7E7C06810B1028B1207F1D51846704763
:1085D00010B504462046FFF742FF28B1038B03F095
:1085E0000303012BF7D110BDE468002CFBD0238BD3
:1085F0001B07EFD5F7E710B5014600240846013404
:10860000FFF7D6FF0E2C01D1084610BD08B1014678
:10861000F4E7022CF8D10B69002B08BF0021F3E727
:1086200038B504460E252046FFF7D2FF013D01D1A3
:10863000204638BD0028FBD00446F4E711F0010FB6
:108640002DE9F041044688461DD0324E3268824200
:1086500004D0314A77213148FFF76AFD2046FFF701
:10866000A7FF054620B92046FFF7DAFF054650B1BF
:108670002B692046002B18BF1D463560FFF770FFA1
:108680002846FFF76DFF18F0020F27D0214F3A68F8
:10869000A24204D0204A8C212048FFF749FD204601
:1086A000FFF796FF064620B92046FFF7A4FF0646CF
:1086B000A0B13046FFF7CCFE054638B1038B03F07E
:1086C0000303012B03D0FFF7CAFEF5E7354620462A
:1086D0003D60FFF745FF2846FFF742FF18F0060F01
:1086E00015D0E3689BB1DB688BB11D697DB128466D
:1086F000FFF7AEFE002818BF0546064B20461D605A
:10870000FFF72EFF2846BDE8F041FFF729BFBDE87F
:10871000F08100BF50010020BB240108862401081D
:10872000F8B50D460646FFF74BFE0B4C2F18228B73
:10873000638B9A4204D3094A9D210948FFF7F8FC4C
:10874000228B6169531C23830C235343CA18CE50D8
:10875000C2E90157F8BD00BF50010020CC24010838
:10876000E3240108C068003018BF01207047038B64
:1087700013F0010304D0C0680028F8D1012070472D
:1087800018467047004870475401002010B50D4C42
:10879000B4F94421B4F948319A4205DA0A4A4FF44F
:1087A000D8710A48FFF7C4FC094AA2F5A0710B680A
:1087B000C4F844314B6853600023A380E3802381D5
:1087C000638110BD50010020162501088624010890
:1087D00094020020084BD3F844215A60D3F8482172
:1087E0009A600022A3F84421A3F84621A3F8482167
:1087F000A3F84A21704700BF500100202DE9F8433B
:10880000FFF7DEFD00250746134EDFF8549006F112
:108810001408338B9D421CDA2946404600F088F943
:1088200083680446BB4212D203681B8BDB0705D466
:108830004A4640F26D110948FFF77AFC2068036848
:108840001B699847FFF7BCFD63681844A0600135B9
:10885000DFE7BDE8F88300BF50010020862401084F
:1088600032250108013970B50446154603294FD851
:10887000DFE801F002131D3803681B68984724697C
:10888000002C45D0238BDD0705D523680022DB684B
:108890000121204698476469F2E71E4B18680028BA
:1088A00036D0BDE87040036891B25B681847C36872
:1088B0000BB9FFF7A3FF238BD80606D5002347F299
:1088C000694221462046FFF754FE246904B3238BF6
:1088D000D90705D523680022DB6803212046984785
:1088E0006469F3E7038B9A0605D5036804229E6842
:1088F00000212B46B047246954B1238BDB0705D5F3
:1089000023682A46DB680421204698476469F3E718
:1089100070BD00BF500100202DE9F0411C4E0746FC
:108920000024354606F11408338B9C422DDA21468B
:10893000404600F0FDF80368BB4224D1338B9C42D3
:1089400004DB144ACD211448FFF7F2FB0C236343E8
:108950002A8B03F10C06013AA24208DD6A69013450
:108960001344324407CA83E807003346F0E793B262
:108970006A8B2B839A4208D2BDE8F041074AB121A5
:108980000548FFF7D5BB0134CEE7BDE8F08100BF55
:108990005001002057240108E32401085C25010848
:1089A000F0B587B06C46054620460F4600F0B0F89B
:1089B00094E807002C4C03AE86E80700B4F8E230D8
:1089C000B4F8E0209A4204D3284A9D212848FFF7B2
:1089D000AFFBB4F8E030002F08BF2F46591CA4F8B5
:1089E000E0100C21D4F8DC2001FB032396E80700FB
:1089F00083E807001F48276000F0B2F80068FFF71F
:108A0000AFFDB4F90430B4F908108B420EDB2A46EE
:108A100052F8043F63605368174A53602846FFF7D3
:108A2000DBFC2846FFF79CFD07B0F0BDB5F904203C
:108A30009A42A8BF1A46B4F90630A280B5F90620BA
:108A40009A42A8BF1A46B5F90830E2808B42B8BFF7
:108A50000B46B5F90A202381B4F90A309342B8BF16
:108A600013466381DAE700BF50010020CC240108DF
:108A7000E32401082C0200205401002008B502481C
:108A800000F06EF808BD00BF2C02002010B50446AF
:108A9000194800F065F80368A34205D1174A4FF45E
:108AA000CD711748FFF744FB2046FFF705FD002373
:108AB000144C04F1DC00A380E3802381638100F087
:108AC0004FF8036820692360FFF74AFD04F1DC00DA
:108AD00000F046F8031D03CBB4F8E0306060A160FD
:108AE00023B9094AA9210948FFF722FBB4F8E0306D
:108AF000013BA4F8E03010BD2C02002085250108C0
:108B0000862401085001002040240108E3240108C4
:108B1000034610B50446054A116852F8040F43F89D
:108B2000041B516803C3204610BD00BF5001002044
:108B300038B50C1E0546838801DAE41801D4A34237
:108B400004DC054AC7210548FFF7F2FA0C202B6820
:108B500000FB043038BD00BF4D240108E3240108A8
:108B6000838810B5044623B9054AA3210548FFF7B9
:108B7000DFFA0C23A088434320680C3B184410BD47
:108B800040240108E324010838B50024034D2819C6
:108B90000C34FFF7BDFF602CF9D138BD3402002042
:108BA0000E22024B02FB0030704700BFB0250108C7
:108BB000002138B50546084603F0B6F94FF496345F
:108BC000284603F0BDF9013CFAD138BD2DE9F04744
:108BD00004469046BDF82090C1F1F007C3F1F006BD
:108BE00044450FDA35461FFA84FABD4208DAA9B2C5
:108BF000504603F099F9484603F0A2F90135F4E72D
:108C00000134EDE7BDE8F08713B5B0F90240B0F9E3
:108C10000630B0F90420B0F9000000912146FFF7BA
:108C2000D5FF02B010BD10B51446C1F1EF0180B2FE
:108C300089B203F079F92046BDE8104003F080B90D
:108C400010B50C4641880088C1F1EF0189B203F0EC
:108C50006BF92046BDE8104003F072B92DE9F74FDB
:108C600090460E2299469DF83040314B074602FB54
:108C700004344FF61E0399451DD104F1FF3904F168
:108C80000D0A0C1B19F8016F0025F64304EB090BC4
:108C9000F6B2320604D5424659467819FFF7C3FFAB
:108CA00001357600082DF6B2F3D1CA45EAD1082085
:108CB00003B0BDE8F08F98451CD104F1FF3804F1F2
:108CC0000D0B0C1B4FF0000A18F8016F04EB0805A0
:108CD000330605D54A46294607EB0A00FFF7A3FFEE
:108CE0000AF1010A7600BAF1080FF6B2F0D1D845C0
:108CF000E8D1DCE70D4604F10E03019300F1080B07
:108D00003E4614F801AB1AF0800F14BF4A464246A3
:108D1000304629460136FFF786FF4FEA4A03B3453E
:108D20005FFA83FAEFD1019B01359C42E8D1BEE79F
:108D3000B02501082DE9F7430A9D06460F469046E7
:108D40009946BDB1287890B1013D344615F8013FF0
:108D500063B10A2B01D11037F7E7009320464B4649
:108D600042463946FFF77AFF0444EFE7A01B03B001
:108D7000BDE8F0832846FAE7FFF7DCBF41EA0003CD
:108D800033F0030301BF40EA81000349401890F823
:108D9000000E18BF00207047B02501082DE9F04FE4
:108DA000984605460E4617460C4687B0BDF840303B
:108DB00001F1030A0293531EA8F1030B05934445E6
:108DC0002EDAA24508D1029B3A46009351465B46F3
:108DD0002846FFF7FBFE5C46A946A8EB0402531E9B
:108DE0000393A31B0493B94518DA059BA9EB05026D
:108DF000A3EB0900039B1946049B9942A8BF19469F
:108E00009042A8BF1046FFF7B9FF20B9029A214649
:108E10004846FFF708FF09F10109E4E70134CEE70E
:108E200007B0BDE8F08F13B5B0F90240B0F90630D5
:108E3000B0F90420B0F9000000912146FFF7AEFF21
:108E400002B010BDB0F90230B0F90610B0F904203C
:108E5000C3F1F003C1F1F001B0F9000003F07CB8F8
:108E600003F06EB870472DE9F74F064600254FF620
:108E70001E0917460C9A9846137802F1010B0093CD
:108E80004B1E01935C46019BA3EB0B0A009BA4EBDA
:108E90000B02934213DD14F8012BB2B153070AD52C
:108EA0004F45F3D03A4604EB0A013046FFF7BBFECC
:108EB000ECE7A346E6E7C845E8D04246F3E70135CC
:108EC000502D06F10106F4D10825284603B0BDE86F
:108ED000F08F2DE9F84F0A9F80463C460D4691469B
:108EE0009A4692B29BB289B280B203F05AF80B9BB9
:108EF00007EB430655450EDAC346CB4509DA34F88D
:108F0000020B03F01DF8A64208BF3C460BF1010B13
:108F1000F3E70135EEE7BDE8F88F024ACD210248BC
:108F2000FFF706B9F1390108C033010800F58033B5
:108F3000DB0200F10820834204D21A68013203D117
:108F40000433F8E7012070470020704708B51D4B37
:108F50000344DB02B3F56C3F02D34FF0FF3008BD92
:108F6000194A1169090623D4174AD168C907FCD4E4
:108F7000116903F1006303F5A04341F0020111619F
:108F80005361136943F0400313610F4BDA6812F029
:108F90000102FBD119691A611A6942F080021A6153
:108FA000FFF7C4FF00280CBF6FF00A000120D6E7CE
:108FB0000649516001F18831516012691206D3D51A
:108FC000CBE700BFF6FF1F000020024023016745EA
:108FD00008B50B4600F580314FF40062C90218460F
:108FE00008F08EFE012008BD00F58033012030B569
:108FF000C1EBC32301F500645A5851F8045BAA423F
:1090000002D0013205D10020A142F5D180F001004B
:1090100030BD0220FCE700F58030C00200F178434B
:10902000A3F5A043B3F56C3FF0B502D34FF0FF308A
:10903000F0BD1A4B1A69140624D4184AD368DB070A
:10904000FCD4164E01F500673546431A32695C18A8
:1090500042F00102326131F8022B2280E86810F000
:109060000100FBD12A6922F001022A61228831F82D
:10907000024C94420FD1B942E8D12B6943F08003EE
:109080002B61D5E7064A5A6002F188325A601B69A3
:109090001A06D2D5CAE76FF00A00C9E700200240DD
:1090A0002301674538B50E4B0E4A0344B2EBC32F7C
:1090B00004460D4610D3FFF797FF00280EDD022867
:1090C00002D12046FFF742FF012807D1294620465A
:1090D000BDE83840FFF79FBF4FF0FF3038BD00BFFD
:1090E000F6FF1F00FFAF0300002380F80038C0F830
:1090F00004387047014690F8000818B1D1F8040808
:10910000FFF7D0BF70472DE9F74F044691464FF067
:10911000000A4FF0010B01F17845ED0A1E4605F5F6
:109120008033A1EBC321C1F5006821F00101431890
:109130000093002E27DDD4F80438C4F804589D426B
:1091400005D021462846FFF743FF84F800A846458E
:10915000ABBF47463746012300233A4649460098AD
:10916000019308F0CDFD019B84F800B8F61B002B9D
:10917000DFD02146D4F80408FFF794FF0028D8D0A8
:1091800003B0BDE8F08F0020FAE70148704700BF48
:109190009C02002040F608020021014808F026BE8B
:1091A0009C02002038B5074C2046FFF7A3FF054678
:1091B00040F608020021204608F018FE281C18BFBF
:1091C000012038BD9C02002008B513460A4601461E
:1091D0000248FFF798FF012008BD00BF9C02002055
:1091E00001380A44914204D011F8013B00F8013FD4
:1091F000F8E77047026930B501F109036AB34269C3
:1092000001F11105541E14F8010F202806D005287D
:1092100008BFE52003F8010BAB42F4D1107A2028F7
:109220000DD018462E24D51D00F8044B013315F837
:10923000014F202C03D003F8014B9842F7D1D07A8C
:109240000872D0690860547E107E40EA042088804D
:10925000D07D927D42EA0022CA8000221A7030BD81
:1092600003685BB11A784AB1D9888288914205D1E6
:109270005B78002B14BF0320002070470920704743
:10928000CA7E8B7E032843EA022301BF487D0A7D04
:1092900042EA002243EA02431846704783690239D2
:1092A000023B8B4283BF8378806A01FB030000206E
:1092B000704748B9054B1A6802B1107009B1002215
:1092C0000A701960002070470B2070471C0B0020AB
:1092D000003018BF01207047003018BF01207047D0
:1092E00038B50D460446114648B943B11B0328461C
:1092F00003F47042090306F0B4FD204638BD042093
:10930000FCE710B50A46044600F13001012340781D
:10931000FFF7E6FFC0B994F82F2294F82E3243EA03
:1093200002234AF65522934210D1D4F86630084AF7
:1093300023F07F43934206D0D4F8820020F07F4090
:10934000801A18BF012010BD0320FCE70220FAE7B5
:109350004641540038B5C36A05468B420C460FD0CF
:1093600003790BB1012038BD61B10A46012300F138
:1093700030014078FFF7B4FF0028F3D1EC62F2E748
:109380000020F0E70846EEE70129F8B505460E464D
:1093900072D983698B426FD90378022B32D0032BA9
:1093A00048D0012B09D1438901EB5107B7FBF3F3F7
:1093B000016A1944FFF7CEFF10B14FF0FF3020E0F3
:1093C00069892846B7FBF1F301FB13730137B7FB3B
:1093D000F1F12B4493F830402B6A1944FFF7BAFFA0
:1093E0000028EAD16A89B7FBF2F302FB13773D4408
:1093F00095F83000F30744EA00204CBF0009C0F3A1
:109400000B00F8BD43895B08B1FBF3F3016A194413
:10941000FFF7A0FF0028D0D172006E89B2FBF6F3EF
:1094200006FB1326354495F8313095F8300040EAB4
:109430000320E6E743899B08B1FBF3F3016A194473
:10944000FFF788FF0028B8D16A89B600B6FBF2F3AF
:1094500002FB136606F130032B449878DA78000497
:10946000354440EA026095F830205B78104340EACA
:10947000032020F07040C4E70120C2E770B5044625
:109480000D46E1808168012901D1022070BD036889
:109490009A698A42F9D9F9B91A78032A01D1596A25
:1094A000D1B90022E2601A89AA42EED95A895B6AD0
:1094B0005209B5FBF2F213442361236800205A8954
:1094C00003F130015209B5FBF2F302FB1355ADB2C3
:1094D00001EB45156561D9E75E8972099E785643AF
:1094E000B6B2B54222680ED31046FFF74DFF431CBB
:1094F000014613D00128C8D923689B698342C4D987
:10950000AD1BADB2EDE7E1601046FFF7C7FE538932
:109510005B09B5FBF3F318442061CEE70120B5E702
:109520000129F8B504460D46164640F28A80836943
:109530008B4240F286800378022B44D0032B59D013
:10954000012B7AD1438901EB5107B7FBF3F3016A91
:109550001944FFF7FFFE58BBB4F80AC015F0010527
:10956000B7FBFCF20CFB1272224418BF92F83010C9
:1095700007F101071FBF01F00F03310101F0F001F6
:109580001943B7FBFCF34FF0010E08BFF1B282F8AC
:109590003010226AE16A1A448A4284F804E04ED10B
:1095A0000CFB1373234435B1C6F3071283F8302044
:1095B00001232371F8BD93F83020C6F3032622F06F
:1095C0000F023243F2E743895B08B1FBF3F3016A10
:1095D0001944FFF7BFFE0028EAD163896A00B2FB95
:1095E000F3F503FB15253212254485F8306085F824
:1095F0003120DDE743899B08B1FBF3F3016A19448D
:10960000FFF7A8FE0028D3D16289AD00B5FBF2F3C5
:1096100002FB135505F130012144CB7825441B068C
:1096200003F0704343EA0602131285F830204B70B2
:10963000130C120E8B70CA70BAE70220B8E770469E
:10964000B6E70220B6E7F8B505460F4679B9C66811
:10965000BEB183699E4228BF01263446AB690134FE
:10966000A34211D8012E0ED800242046F8BDFFF7E2
:109670008BFE0128044630D9AB698342F5D83E46BB
:10968000EBE70126E9E7022421462846FFF77CFEA6
:1096900048B1411C02D14FF0FF34E6E701281CD04D
:1096A000B442DBD1E0E76FF0704221462846FFF775
:1096B00037FF80B947B92B69EC605A1CD5D0013B04
:1096C0002B6101236B71D0E7224639462846FFF70C
:1096D00027FF0028EFD00128DDD00124C5E7F8B529
:1096E00004460D46FFF7BCFD0746002868D1A27965
:1096F00016065CD4E3689D4203D912F0020F08BF3E
:109700001D460022A368A260BDB9E368AB4257D2F0
:10971000A379E56043F02003A37151E000202368A2
:10972000A5685A89B5FBF2F302FB1353002BECD06A
:10973000A369834218BFA061E7E720688278468961
:1097400056434BB3013B6A1EB2FBF6F2B3FBF6F194
:109750008A4221D3724213406169A360ED1A002945
:10976000DCD0AE42206807D2A3799A072DD5FFF747
:109770006AFF014660BB3546A36820682B44A3609E
:109780004389B5FBF3F203FB1255002DC6D0FFF75A
:1097900085FD40B11044C2E72169A1B9FFF753FF2D
:1097A0000128014605D1A37963F07F03A371022745
:1097B00006E0013006D10127A37963F07F03A3718E
:1097C0003846F8BD21616161C9E7FFF7DDFD01465B
:1097D0004B1CF0D00129E6D923689B699942E2D25B
:1097E000A36861613344A360AD1BBAE70129F8B5F2
:1097F00004460D4622D983698B421FD90127A369EC
:10980000AB4201D80020F8BD29462046FFF7BCFD39
:1098100006460028F6D0012810D0411C10D00022A6
:1098200029462046FFF77CFE0028ECD123695A1C0C
:1098300002D00133236167713546E0E70220E2E799
:109840000120E0E770B5044640B3FFF709FD054687
:1098500098B9A379190623D49A0723D5D4E902210C
:1098600091420AD943F02003E260A371206832B923
:109870002169FFF7BBFF256140B9284670BD6169CA
:10988000FFF782FD431C06460ED10120A379054651
:1098900063F07F03A371F0E70220F7E70925ECE707
:1098A0000225EAE70725E8E70128F5D02068836963
:1098B0009E42E2D26FF070426169FFF731FE0028EC
:1098C000E4D131462068FFF791FFD5E72DE9F0415B
:1098D000C58804460135ADB20F4615B90420BDE870
:1098E000F0810269002AF9D0006843895909B5FB63
:1098F000F1F301FB13539BB233B9E16801322261EA
:1099000091B90389AB42E9D92368E5805A8903F10B
:1099100030015209B5FBF2F302FB1355ADB201EB76
:10992000451565610020DAE7438982785B09B5FB5C
:10993000F3F3013A1342E7D1FFF726FD012806466B
:1099400001D80220CBE7421C01D10120C7E72068E3
:109950008369B3423AD8002FC0D0E168FFF773FEA5
:109960000646002839D00128EBD0431CEDD0002159
:109970002068FFF7EFFC0028E7D1236803F13002ED
:109980005B8913F1FF3302D302F8010BF9E7226878
:1099900031461046FFF782FC00274FF00108D062E5
:1099A0002368F9B29A788A420DD983F8048000219D
:1099B0002068FFF7CFFC01370028C6D12268D36AA0
:1099C0000133D362ECE7DA6A521ADA62E6603146B2
:1099D0002068FFF763FC206196E707207FE72DE909
:1099E000F8430B7804462F2B0D4601D05C2B00D199
:1099F00001350026A6602B781F2B2ED920262B7828
:109A0000AE462F2B05F10105F9D05C2BF7D0A769E5
:109A10003B4607F10B02934226D14FF000084FF06E
:109A2000080C454643460EF1FF3919F8012F013560
:109A3000202A23D92F2A21D05C2A1FD02E2A75D084
:109A4000C44508D9100606D4434810F8011F002960
:109A500075D08A42F9D1062004E031462046FFF74E
:109A60000DFD6661BDE8F88303F8016BD3E743F0B1
:109A7000020307F8082008F10108D6E7212A7544F7
:109A800034BF04220022B8F1000FE4D03978204618
:109A9000E52904BF05213970BCF1080F04BF9B0004
:109AA000DBB203F00301012903F00C0308BF42F00D
:109AB0001002042B08BF42F00802FA720021FFF7DF
:109AC000DDFCD8B921692068FFF744FCB0B96269B0
:109AD000137893B1D37A19070AD4A36903F10B0C55
:109AE00063450BD012F8017B13F8011B8F42F7D0AE
:109AF00000212046FFF7EAFEE3E70420A369DB7AB2
:109B000030B10428AED113F0040F08BF0520A9E737
:109B10005A07A7D46169CB7ADB0605D52368187884
:109B2000FFF7AEFBA0606AE705209BE7BCF1080FDA
:109B300091D19B00E046DBB24FF00B0C75E7A2F130
:109B40004101192993D9A2F1610119299EBF203A37
:109B500043F00103D2B28CE7DC33010838B50021B1
:109B60000546FFF78BFC0446B0B929692868FFF762
:109B7000F1FB044680B96B691B78E52B0ED06BB105
:109B800001212846FFF7A2FEEDE70B22A969FFF7A6
:109B900027FB01222B681A71204638BD29692868E5
:109BA000FFF7D8FB04460028F6D168692246034631
:109BB00000F120019942E8D003F8012BFAE710B533
:109BC000044604202169C1B12068FFF7C3FB88B9AE
:109BD00062691378A3B1E52B06D02E2B04D0D37A7B
:109BE0001B0701D4002010BD00212046FFF76EFEA8
:109BF0000028E7D000232361F5E70028F2D0F9E739
:109C00000420F7E77FB504460D46FFF729FB06461B
:109C100020B92DB901462046FFF730FC04B070BDD5
:109C200001ABA3612046FFF7CAFF04280DD12661CE
:109C300029462046FFF7DEFA00212046FFF746FEC0
:109C4000042804BF00202061E8E70028F0D0E5E701
:109C500010B5C1880446FFF711FC50B9216920688E
:109C6000FFF778FB28B9E52263691A70012223689F
:109C70001A7110BD2DE9F8431F4600233B600446CE
:109C800088461646FFF7ECFA002838D1A379190662
:109C900027D49A0740F18D80E368DE427ED24FF0F0
:109CA0000109A168002E79D020684289B1FBF2F544
:109CB00002FB1512002A48D18378013B2B4013F098
:109CC000FF051FD179B9216929B9FFF7BCFC01460D
:109CD0002061002962D001290AD1A37963F07F03B2
:109CE000A37102200BE06169FFF7ADFC0146F0E7CC
:109CF0004B1C06D10120A37963F07F03A371BDE85B
:109D0000F88361612068A369C26A9A4204D1002184
:109D1000FFF720FB0028EDD1226861691046FFF7AC
:109D2000BDFA0028D9D051890544B6FBF1F10029CC
:109D3000E0D1D4E90203984206D31046FFF70AFBAC
:109D40000028D7D12368DD62A5612068A268458913
:109D5000A169B2FBF5F305FB1323ED1AB54228BF49
:109D60003546FFF7F7FA0028C4D12068A168428978
:109D7000761BB1FBF2F302FB131330334146184458
:109D80002A46FFF72DFA2368A84483F80490A368B5
:109D90002B44A3603B682B443B6082E7D4E902324A
:109DA000934288BFE360A379002043F02003A371AE
:109DB000A5E70720A3E710B500210446FFF7CAFA7C
:109DC0000346002839D12378032B32D1637983B33A
:109DD000E06204F1300304F50C72934202D003F800
:109DE000010BFAE74AF65523A4F82E32144B2363ED
:109DF00003F1FF5303F500532033C4F814322369F1
:109E00001A1284F8183284F819221A0C1B0E84F8DE
:109E10001B32E36884F81A221A1284F81C3284F880
:109E20001D221A0C1B0E84F81F32002384F81E22F8
:109E300063716378003318BF0123184610BD00BF5B
:109E40005252614110B50446FFF7B5FF2046BDE808
:109E500010400121FFF77EBA10B50446FFF700FA63
:109E6000002833D1A3799B0630D5E1692068FFF73C
:109E700071FA014650BB236ADA7A42F02002DA72A4
:109E8000E2681A77E26812125A77E2899A77E27BDF
:109E9000DA77226999749A761012120C1A751212D6
:109EA0005A75A0229A756C22DA7521221A76282218
:109EB0005A760122D876D974A37923F02003A371AE
:109EC00023681A712068BDE8104074E710BD10B512
:109ED0000446FFF7C1FF00B9206010BD2DE9F84F1F
:109EE00099460023C9F80030044688461546FFF716
:109EF000B7F9002832D1A379190622D4DA0740F144
:109F00008A80D4E90220801A854228BF0546002DA8
:109F100000F083802068A2684389B2FBF3F103FB61
:109F20001123002B59D18778013F0F4017F0FF070D
:109F300017D142B92069012809D8A37963F07F03BA
:109F4000A37102200AE06169FFF71EFAF3E7431CE0
:109F500006D10120A37963F07F03A371BDE8F88FD8
:109F60006061D4F800B061695846FFF797F900289E
:109F7000E3D0BBF80A6000EB070AB5FBF6F656B370
:109F80009BF80230BA199A4288BFDE1BF3B25246E0
:109F900041469BF80100FFF7A3F90028D9D12168B9
:109FA0000B7953B1C86AA0EB0A00864205D94A89E9
:109FB000303102FB0080FFF713F923685B895E43B1
:109FC000A368B0443344A360D9F80030AD1B3344D8
:109FD000C9F800309BE7C4F818A02068A268468939
:109FE000A169B2FBF6F306FB1323F61AAE4228BFB3
:109FF0002E46FFF7AFF90028ABD12168A0684A8947
:10A00000B0FBF2F302FB13033033324619444046EF
:10A01000FFF7E6F8D4E70720A0E728469EE72DE9FA
:10A02000F84303681A78303A092A1ED900230B60D6
:10A030007C4E3468002C00F0F1800C6023780BB16A
:10A04000607880B1002323804FF480530021C4F84E
:10A050000A302046FFF755F9012840F0CC8094F8EB
:10A06000F2316BB90D20BDE8F8835C783A2CDDD174
:10A070000233036000230B60002AD9D00B20F2E7E3
:10A08000D4F8F67120463946FFF73BF9032800F073
:10A09000C7800028E6D194F83C3094F83B0040EAB1
:10A0A000032063898342DDD194F8473094F8462039
:10A0B00094F840C052EA032208BF626D0CF1FF33EE
:10A0C000012BE26184F803C0CCD894F83D9084F869
:10A0D0000290B9F1000FC5D009F1FF3313EA090F5F
:10A0E000C0D194F8423094F84180450948EA0328E9
:10A0F000B8FBF5F105FB1185ADB2A4F80880002D81
:10A10000B0D194F8445094F8433094F83EE053EAC8
:10A11000052394F83F5008BF236D5EEA052EA1D0B9
:10A1200002FB0CFC7144614499429BD85B1AB3FB5F
:10A13000F9F3002B96D040F6F5754FF6F579AB4262
:10A140008CBF022501254B4588BF032539440233C6
:10A15000A162032D0EEB0701A36121624DD1B8F17D
:10A16000000F7FF47FAFE16D9B006162411E0B44E5
:10A17000B3FBF0F08242FFF475AF00234FF0FF32E3
:10A18000032DC4E903322CD1637194F8602094F854
:10A19000613004F1300142EA03223A446261012352
:10A1A0006078FFF79DF8E0B994F82F2294F82E32EA
:10A1B00043EA02234AF65522934212D1226B1A4BEC
:10A1C0009A420ED103F1FF53D4F8142203F5005341
:10A1D00020339A4201BFD4F81C32E360D4F818321D
:10A1E00023610020B388257001339BB2B380E380E4
:10A1F000E062207137E7002748E7B8F1000F3FF42D
:10A2000031AF6144022D61624FEA43011BBFC9189F
:10A2100003F001030B4603EB5103A7E70C2022E7F1
:10A22000012020E71C0B00205252614130B587B05D
:10A230000191044628B3014601A8FFF7F0FE68B972
:10A2400003ABA361019920462568FFF7C8FBD0B98D
:10A25000616951B1CB7ADB0603D40520002323606A
:10A260000DE02878FFF70CF8A060EB880021A380B0
:10A270002046FFF703F90428EFD00028EED107B0FD
:10A2800030BD0920FBE70428E7D0E7E730B58DB003
:10A2900001900D4601A805A9FFF7C1FE044668B963
:10A2A00002AB019905A80B93FFF799FB044628B967
:10A2B0000A9B33B1294605A8FEF79CFF20460DB046
:10A2C00030BD0624FAE72DE9F34702AB43F8040D4D
:10A2D0008846184611461446FFF7A1FE054638B9D0
:10A2E0002468A7692369BA1E934205D8C8F80030CC
:10A2F000284602B0BDE8F08794F80090B9F1010F4C
:10A3000019D10227064639462046FFF73DF8431C7F
:10A3100039D0012839D000B90136A3690137BB42D1
:10A32000F1D8B9F1030F08BF0123266108BF63719B
:10A33000C8F80060DCE7034602460646216A4AB9CF
:10A34000204601F1010AFFF705F800BB514662897A
:10A3500004F130035878B9F1020F4FEA002093F866
:10A3600000C008D150EA0C0008BF01360233023A9F
:10A37000013FE4D1D5E71868043A30F0704008BFD7
:10A3800001360433F4E70125CBE70225C9E705468A
:10A39000C7E770B594B0019006A901A8FFF73FFE8A
:10A3A0000446E8B903AB019906A80C93FFF717FB25
:10A3B0000446A8B90B9EB6B1F37A13F0010F18BF8B
:10A3C0000724069B31461878FEF75AFF05463CB92C
:10A3D000F37ADB0609D406A8FFF73AFC0446D8B1A5
:10A3E000204614B070BD0624EBE7012822D91C22B8
:10A3F00006A90DA8FEF7F4FE02210DA80F95FFF7A0
:10A400003DF804460028EBD10DA8FFF7D8FB044621
:10A4100090B10428E4D1DEE725B90698FFF7CBFC1C
:10A420000446DDE729460698FFF7E0F904460028D0
:10A43000D6D1F2E70224D3E70724D1E730B58DB0B7
:10A4400001900D4601A805A91446FFF7E8FDA0B943
:10A4500002AB019905A80B93FFF7C1FA68B90A9AF4
:10A460006AB1D37A05985D402C4004F027045C4023
:10A470000123D4720371FFF79EFC0DB030BD06209E
:10A48000FBE710B58CB001900C4601A805A9FFF7B9
:10A49000C6FDB8B902AB019905A80B93FFF79FFA67
:10A4A00080B90A9B83B1E28805989A75E2881212F6
:10A4B000DA75A2881A76A28812125A7601230371DD
:10A4C000FFF779FC0CB010BD0620FBE730B59BB060
:10A4D00001900C4601A80CA9FFF7A1FD002869D145
:10A4E0000C9B019913930CA803AB1293FFF777FA17
:10A4F00000285FD1119900295ED015220B3106A8E2
:10A50000FEF76EFE0CA913A81C22FEF769FE214679
:10A5100013A8FFF764FA002850D004284AD113A8E2
:10A52000FFF71CFB002845D1189D13220DF11A01DD
:10A5300005F10D00FEF754FE9DF818300C9C43F019
:10A540002003EB72012323710E9A159B9A422AD0A5
:10A55000EB7ADB0627D529462078FEF791FE0146E7
:10A560002046FEF79BFE014650B32046FEF7F2FE62
:10A5700000BB0C9A92F851302E2B14D11178159BF8
:10A58000032903D1516A994208BF0023191282F8A6
:10A590006A301B0C82F864301B1282F8653001238C
:10A5A00082F86B1013710CA8FFF752FB10B90C98CE
:10A5B000FFF701FC1BB030BD0420FBE70820F9E7E2
:10A5C0000220F7E72DE9F0478CB0019117460646C7
:10A5D000002800F08180002305A9036001A8FFF78F
:10A5E0001EFD0546002873D102AB019905A80B9307
:10A5F000FFF7F5F90A9C10B9002C08BF062017F0E8
:10A600001C0F07F01F0842D0C8B3042802D105A8C8
:10A61000FFF7A4FA48F0080878BB0A9C18F0080F66
:10A620003ED0A023A3736C23E3732123002723745C
:10A630002823DDF814906374E77227776777A7778C
:10A64000E77799F800002146FEF71AFE0123A77666
:10A65000E7762775677589F80430074600B3014629
:10A660004846D9F82CA0FFF7C1F830B90598013F4A
:10A67000C7605146FEF76EFE90B1054628E0E37ACA
:10A6800013F0110F2CD17807C8D5082520E0002839
:10A69000F3D1E37AD90621D4BA0701D5DB071FD459
:10A6A000059F18F0080FFB6A18BF48F02008C6E99C
:10A6B000073486F8068038782146FEF7E1FD3061E0
:10A6C000E3693760F3600023B360B361FB88B38054
:10A6D00028460CB0BDE8F0870925F9E70425F7E71F
:10A6E0000725F5E72DE9F04F8DB0019005A901A8E8
:10A6F000FFF795FC05460446002840F0868002AB33
:10A70000019905A80B93FFF76AF90546002800F0A8
:10A710009080042879D121460598FEF794FF0646DB
:10A72000002800F08280012800F08180431C67D05F
:10A7300021460598FEF70EFE0546002861D1059CCE
:10A7400031462046FEF7AAFD04F130080346414693
:10A75000628912F1FF3208D24246202104F13B0007
:10A76000824205D002F8011BFAE701F8015BF0E72D
:10A77000102284F83B20A02284F846206C2284F822
:10A78000472021222E2584F848202822370C5FFA02
:10A7900087FB5FFA86F9C6F3072A3F0A84F8492047
:10A7A0004146202204F1500084F8305084F84A9049
:10A7B00084F84BA084F844B084F845700093FEF709
:10A7C0000FFD059984F851500878079A0328009BDB
:10A7D00003D1486A904208BF002284F86A20101210
:10A7E000120C84F86420121284F86B0084F865203F
:10A7F000012000248A78F2B10599CB62087143B137
:10A80000012531460598FEF7F1FF28460DB0BDE859
:10A81000F08F4B89414613F1FF3302D301F8014B0E
:10A82000F9E7013AD2B20123E5E70725E9E7022576
:10A83000E7E70825E9E705A8FFF790F905460028AE
:10A84000DFD110220A9B0598DA72A0229A756C2239
:10A85000DA7521221A76282283F81A905A7683F81C
:10A860001BA083F814B05F7501230371FFF7A3FAEF
:10A870000546CAE70420704770B959B1012903D1D0
:10A880004FF40063136070478B1E012B04D84FF404
:10A890008053F7E708467047042070470048704728
:10A8A000A06C212805289ABF014B185C0220704734
:10A8B000D733010800487047941B0020044B002147
:10A8C0001A6802B11170034A002011701A607047B3
:10A8D0001C0B0020640B0020022910B50A460BD186
:10A8E00001460A220C48FFF76DFE052801D9022017
:10A8F00010BD0A4B185CFBE70129F8D10146064858
:10A90000FFF760FE04460146054800F0CFFA052C2B
:10A91000EDD8024B185DEBE7240B0020D73301087C
:10A92000EC33010807B5014601AB4FF480520548EE
:10A93000FFF7D4FA05288EBF0220034B185C03B042
:10A940005DF804FB240B0020D733010807B501464E
:10A9500001AB4FF480520948FFF78CF9019BB3F526
:10A96000805F06D1052806D8054B185C03B05DF85A
:10A9700004FB0520FAE70220F8E700BF240B0020C3
:10A98000D733010808B5431C01460AD00848FEF732
:10A99000A6FE18B1052808D9022008BD0448FEF714
:10A9A00051FF0348FFF793FAF4E7024B185CF4E712
:10A9B000240B0020D733010808B50448FFF787FAB5
:10A9C000052896BF024B0220185C08BD240B00200E
:10A9D000D733010808B501460448FFF727FC0528CE
:10A9E00096BF034B0220185C08BD00BF480B002037
:10A9F000D733010810B5044601460748FFF702F9AE
:10AA0000637A23B1052804D8044B185C10BD0320D9
:10AA1000FCE70220FAE700BF480B0020D73301080B
:10AA2000014B5869704700BF1C0B002008B5014658
:10AA30000448FEF754FE052896BF034B0220185C1D
:10AA400008BD00BF240B0020D733010808B5FDF76F
:10AA50003FFC30B12B38C0B213288EBF0020014B11
:10AA6000185C08BDFC330108421E0A21002010B505
:10AA700012F8013F303BDCB2092C02D801FB003058
:10AA8000F6E710BDA0F13003DAB2092A01D8184662
:10AA90007047A0F14103052B01D837387047A0F16A
:10AAA0006103052B94BF57384FF0FF30704710B546
:10AAB0000021044614F8010BFFF7E4FF431C02D009
:10AAC00040EA0111F6E7084610BD70B50023802169
:10AAD00030243125064A41FA03F6064214BFD55404
:10AAE000D4540133082BF6D100231372004870BDF3
:10AAF000942B0020002830B5164910DA012440427A
:10AB000000B200220A25002813461BDD90FBF5F356
:10AB100005FB13003030885418B20132F3E70FD12F
:10AB200030230B70012300225D10CA540B44954260
:10AB30000ED0885C13F8014D8C5418700132F6E782
:10AB40000024DEE7002CEED02D22CA540133EAE7C0
:10AB5000004830BD942B00200F2810B5044604D9BE
:10AB6000034A60210348FDF7E3FA034B185D10BD6B
:10AB7000393401084A3401081034010838B5054653
:10AB8000C0F34300FFF7E8FF074C2070C5F3C31084
:10AB9000FFF7E2FF6070280BFFF7DEFF0023A070D5
:10ABA000E370204638BD00BF942B002010B50C4642
:10ABB00006F004FD02460B461048114900F03CFB2C
:10ABC0000E4807F02DFB0E2804D90E4A6E210E48C0
:10ABD000FDF7AEFA094807F023FB0022074BA0421D
:10ABE00002DB01381A54FAE720221A545622034491
:10ABF0005A7000229A70014810BD00BF942B0020AB
:10AC0000683401086B3401084A34010870B50E46F7
:10AC10001E49044607F03AF848B320461C4906F09E
:10AC200083FE04461B4D1949204607F02FF828B132
:10AC30002046174906F078FE0446174D204606F0D8
:10AC4000BDFC0B4602461549154800F0F5FA1448BC
:10AC500007F0E6FA0446284607F0E2FA0021104B16
:10AC6000013C621C0244964203DA1955F8E70D4D87
:10AC7000D9E71A5D29462E2A08BF0022084808BFD6
:10AC80001A5507F0FDF8064870BD00BF00007A4471
:10AC90006F12833A80340108853401086834010852
:10ACA000942B00207C34010870B50E461F490446E1
:10ACB00006F0D8FFF0B120461D4906F035FE0446E7
:10ACC0001C4D204606F07AFC0B4602461A491B48EA
:10ACD00000F0B2FA194807F0A3FA0446284607F034
:10ACE0009FFA0021154B013C621C0244964210DA87
:10ACF0001955F8E74FF07E51204606F0B3FF30B10A
:10AD000020460B4906F010FE0D4D0446D9E70D4DC7
:10AD1000D7E71A5D29462E2A08BF0022074808BF38
:10AD20001A5507F0ADF8054870BD00BF6F12833AA1
:10AD300000007A448A34010868340108942B00200A
:10AD4000913401088E34010810B506F037FC044C2C
:10AD500002460B462046034900F06EFA204610BD1D
:10AD6000942B00206834010870B50021044606F0D9
:10AD700079FF002814BF2D232023184D00212B70AC
:10AD8000204606F06FFF08B104F100441449204644
:10AD900006F0C2FC064606F08DFF04460246114945
:10ADA000114800F049FA204606F06AFD0146304697
:10ADB00006F0B0FC0646094807F032FA0B49044693
:10ADC000304606F0B1FD06F075FF09490246281924
:10ADD00000F032FA00230148AB7170BD942B0020C3
:10ADE0006F12033A95340108952B002000007A4435
:10ADF00098340108A0F10C03412B0C4B05D93F22DC
:10AE00001A7000225A70094870470C2190FBF1F229
:10AE100001FB12012F329A7000220548DA7000EB14
:10AE20004100017C1970417C5970ECE7942B0020A3
:10AE300010340108F0B54FF48075CC0AE400544397
:10AE4000C30AC2F1FF06DB0006FB034393FBF5F3E5
:10AE5000CF00FFB2C908574301F0FC014A43DC10A0
:10AE6000C300DBB2C00806FB037300F0FC0006FB66
:10AE7000002093FBF5F390FBF5F0DB1043EAC423CD
:10AE8000801043EA401080B2F0BDC1431E22002072
:10AE900040004300013393405B18A2F1020244BF1B
:10AEA00001301946931CF3D1704700BF0FB430B581
:10AEB0000025A5B028AA52F8041B04AC02A8CDE9CD
:10AEC000024200F024F90294124C029B1B78DBB181
:10AED0000A2B216803D06068B0F5A07F09DB0E3132
:10AEE000E029C8BF294665602160029B01330293B7
:10AEF000EBE700934FF6FF724FF43043FDF7AEFEE1
:10AF0000636818446060F0E725B0BDE8304004B0E5
:10AF1000704700BFA42B00200FB410B5A2B024AA24
:10AF200052F8041B02AC6846CDE9004200F0EFF88D
:10AF30002046FFF7BBFF22B0BDE8104004B07047C9
:10AF400020B1036819700368013303607047002A59
:10AF50002DE9F04106460C461FDD0D1B11F8010BD3
:10AF60000028FAD1AA42CCBF521B024613F0020FAE
:10AF70000CBF20273027DB0717D41546002D0EDC29
:10AF800022EAE273D21A1D1B05EB040814F8011B18
:10AF900069B13046FFF7D4FFF6E72027EBE73946E3
:10AFA0003046FFF7CDFF013DE8E70023EBE714460D
:10AFB000002C05DD39463046FFF7C2FF013CF7E7BC
:10AFC000002AACBF08EB020008F10000BDE8F081E8
:10AFD0002DE9F0430C4685B08046002120461546F9
:10AFE00006F040FE00B32D2304F100448DF8043038
:10AFF0000DF10507204606F05DFE01230A2101FB45
:10B0000003F2824212DD0A21002B07F101060FDD57
:10B0100090FBF3F202F1300706F8017C03FB12000B
:10B02000374693FBF1F3EFE701AFE3E71346E6E7BB
:10B030002E23002D3B7008BF03253746DFF84490D0
:10B04000BB1B9D4212DD204606F034FE06F018FCC4
:10B050000146204606F05EFB494606F065FC0446C4
:10B0600006F028FE303007F8010BE9E7002225EA58
:10B07000E5757255202301A94046FFF768FF05B02A
:10B08000BDE8F08300002041F0B585B09446DDE9CD
:10B090000A2706461C4641B9302304A921F80C3D75
:10B0A0003B46FFF754FF05B0F0BD33B1BCF10A0FCA
:10B0B00016D1002914DA01244942002304AD05F811
:10B0C000013D0C9B3A3B69B1B1FBFCF00CFB10114C
:10B0D0000929C8BFC918303105F8011D0146F2E73A
:10B0E0000024EAE73CB16AB1BB070BD52D213046FD
:10B0F000FFF726FF013A3B4629463046FFF727FF78
:10B100002044D0E72D23013D2B700024F3E72DE9E7
:10B11000F04307460E46144600254FF00A08DFF8B4
:10B12000149189B03378002B7CD0252B74D173789F
:10B13000002B77D0252B06F101026CD02D2B0ABFF6
:10B1400001230023B21C164631780132302902D186
:10B1500043F00203F7E70022304610F8011BA1F18B
:10B16000300C5FFA8CFEBEF1090F03D808FB02C257
:10B170000646F1E7732908D121680434002908BF85
:10B1800049463846FFF7E3FE0DE064290ED1612001
:10B190002146CDE90130012300920A220968384690
:10B1A0000434FFF771FF05440136BBE766290FD170
:10B1B000073424F00703D3E90001059203F10804E2
:10B1C00006F054FA059A01463846FFF701FFEAE710
:10B1D000782907D121466120CDE901300092002372
:10B1E0001022DBE7582902D121464120F4E77529D6
:10B1F00006D161202146CDE9013000920023CCE741
:10B200006329D1D1216804348DF81C1000218DF8F8
:10B210001D1007A9B5E7164631783846FFF790FEAE
:10B220000135C1E717B100223B681A70284609B002
:10B23000BDE8F0839E3401080EB40FB505AA52F89C
:10B24000041B019001A80392FFF761FF04B05DF8B1
:10B2500004EB03B0704700BF10B508228A490446CA
:10B2600007F00CF870B904F108031C46227801338A
:10B27000303A092AF9D98549204606F095FE58B991
:10B28000834810BD07228349204606F0F7FF0028B7
:10B2900040F0C181E31DE8E77F49204606F084FEC7
:10B2A00008B97E48EDE77E49204606F07DFE08B9E4
:10B2B0007C48E6E77C49204606F076FE08B97B48E4
:10B2C000DFE77B49204606F06FFE08B97948D8E7EA
:10B2D0007949204606F068FE08B97848D1E77849F0
:10B2E000204606F061FE08B97648CAE7764920464E
:10B2F00006F05AFE08B97548C3E77549204606F0BE
:10B3000053FE08B97348BCE77349204606F04CFE6B
:10B3100008B97248B5E77249204606F045FE08B9FB
:10B320007048AEE77049204606F03EFE08B96F4807
:10B33000A7E76F49204606F037FE08B96D48A0E739
:10B340006D49204606F030FE08B96C4899E76C4913
:10B35000204606F029FE08B96A4892E76A49204665
:10B3600006F022FE08B969488BE76949204606F0D5
:10B370001BFE08B9674884E76749204606F014FEBB
:10B3800008B966487DE76649204606F00DFE08B913
:10B39000644876E76449204606F006FE08B963482B
:10B3A0006FE76349204606F0FFFD08B9614868E78A
:10B3B0006149204606F0F8FD08B9604861E7604938
:10B3C000204606F0F1FD08B95E485AE75E4920467E
:10B3D00006F0EAFD08B95D4853E75D49204606F0EE
:10B3E000E3FD08B95B484CE75B49204606F0DCFD0D
:10B3F00008B95A4845E75A49204606F0D5FD08B92C
:10B4000058483EE75849204606F0CEFD08B957484F
:10B4100037E75749204606F0C7FD08B9554830E7D9
:10B420005549204606F0C0FD08B9544829E754495B
:10B43000204606F0B9FD08B9524822E75249204695
:10B4400006F0B2FD08B951481BE75149204606F005
:10B45000ABFD08B94F4814E74F49204606F0A4FD5C
:10B4600008B94E480DE74E49204606F09DFD08B943
:10B470004C4806E74C49204606F096FD002840F06F
:10B4800097804A48FDE600BF8735010898350108D6
:10B49000ADFE000890350108AD3501085D000108DA
:10B4A000BE350108ADAE0008CD35010821AA00085F
:10B4B000E0350108B5A80008F7350108BDA8000867
:10B4C00002360108D9A800081036010825A900088D
:10B4D0001C3601082DAA00082736010885A9000896
:10B4E00033360108B9A900083F3601084DA9000804
:10B4F0004C360108D5A900085B360108F5A90008FB
:10B50000793601084DAA000886360108618E0008C8
:10B5100098360108458E0008B3360108098C0008EA
:10B52000C5360108CD8B0008D3360108678E0008A8
:10B53000E4360108B18B0008F0360108358D0008AB
:10B5400002370108798D0008133701081B8F0008A6
:10B5500024370108D38E000839370108418C0008D0
:10B5600051370108278C000862370108658E0008F2
:10B5700072370108278E00088A3701089D8D000860
:10B580009E370108D3830008A9370108BD8300084E
:10B59000B7370108CD830008C5370108C18300080B
:10B5A000D337010851120108EF37010811120108C1
:10B5B0001A49204606F0F8FC08B9194861E619490D
:10B5C000204606F0F1FC08B917485AE6174920460C
:10B5D00006F0EAFC08B9164853E61649204606F07C
:10B5E000E3FC08B914484CE61449204606F0DCFC9C
:10B5F00008B9134845E61349204606F0D5FC08B9BA
:10B6000011483EE61149204606F0CEFC00281048BD
:10B6100018BF002035E6002033E600BF0D380108D2
:10B62000F91101082A380108E11101084938010817
:10B63000551201086C3801089591000882380108FC
:10B64000A591000899380108C9910008B43801088B
:10B650008B9100082DE9F0472D4B9CB01CAC44F8B1
:10B660006C3D2046174600F0FFFB0646002844D0FC
:10B670000FAB0793342200230DF11C0841462046EE
:10B68000CDE9083200F0B6FBBDF86630202B04D0BF
:10B69000204A12212048FCF74BFD00251699204630
:10B6A00000F00CFC4FF02009AA46BDF86830AB4210
:10B6B00029DD04A92046CDF81080CDE905A900F0C8
:10B6C00099FB079B032B1CD10899204600F0F6FB41
:10B6D0000B9B1E2B04D9114A1B210F48FCF728FD98
:10B6E00000250B9B04A9204606930497059500F0BE
:10B6F00081FB0B9BFD54FFF75FF930461CB0BDE8A2
:10B70000F0870135D1E7FFF757F90026F5E700BFCD
:10B71000B0340108CE380108F83801080E390108A4
:10B72000F7B50D4600240969074600F0C7FBEE682F
:10B730006B69A3420EDD0DF10701384600F0B0FB46
:10B74000A25D9DF807309A4202D0002003B0F0BD00
:10B750000134EDE70120F9E70023CA6849699942FD
:10B7600003DD985C18B90133F9E701207047002028
:10B770007047F7B50D4600240969074600F09EFBA7
:10B78000EE686B69A34209DD0DF10701384600F050
:10B7900087FB9DF80730A3550134F2E703B0F0BDF5
:10B7A0000023184610B5CA684C699C4202DD9854C3
:10B7B0000133F9E710BD2DE9F04F95B04F69CE6820
:10B7C00009698046002500F079FBFDF7E3FCDFF80E
:10B7D00054A0DFF854B00DF11009BD421CDA7C1BF7
:10B7E000402CA8BF40240022D8F8003002929B6869
:10B7F00001A9CDF804900394404698472246494653
:10B800003046FDF7E1FC20B9524664215846FCF76A
:10B810008FFC25442644E0E7FDF7C4FC15B0BDE8E5
:10B82000F08F00BF25390108F83801082DE9F043F1
:10B8300091B04F69CE6840220021684606F0D6FAE2
:10B840000025FDF7A7FCDFF83880DFF83890BD420F
:10B8500011DA7C1B402CA8BF4024694622463046A2
:10B86000FDF7B2FC20B942467B214846FCF760FC5C
:10B8700025442644EBE7FDF795FC11B0BDE8F083C5
:10B8800025390108F838010838B50C460546FFF798
:10B8900047FFE268616920B1BDE838400F48FFF713
:10B8A00005BB0F48FFF702FBE3681B0E202B05D1F9
:10B8B00021462846BDE83840FFF75BBF082B05D17D
:10B8C00021462846BDE83840FFF775BF054A962156
:10B8D000BDE838400448FCF72BBC00BF3F390108E5
:10B8E0005A39010875390108F838010838B50C468D
:10B8F0000546FFF731FF6169E26820B1BDE83840D5
:10B900000F48FFF7D3BA0F48FFF7D0FAE3681B0ED2
:10B91000202B05D121462846BDE83840FFF740BF1F
:10B92000082B05D121462846BDE83840FFF77EBFE9
:10B93000054AAC21BDE838400448FCF7F9BB00BF1C
:10B940003F3901089739010875390108F8380108AD
:10B950002DE9F04F0C46ADF53D7D0020FDF728F9AF
:10B960009D48FFF7A3FA9D4B214607A8079300F0D7
:10B970007BFA002800F009814FF0000834232825C5
:10B9800058AC0DF16C0B214607A8C4E90183C4F83B
:10B9900000B000F02FFADBF82030BBF8321007A817
:10B9A00005FB013100F08AFA11AE214607A8C4E96F
:10B9B0000185266000F01EFA3369894F019373698F
:10B9C00028AD02930FCF0FC50FCF0FC50FCF0FC5F7
:10B9D00097E80F0085E80F0043464FF0FF3238A884
:10B9E00048A940F8232041F823200133102BF8D137
:10B9F0000027DFF81C92DFF81CA2BBF83030BB42F6
:10BA000072DD2825DBF8201007A805FB071100F0E0
:10BA100055FAA5600025214607A82660656000F05C
:10BA2000E9F93168029B07A8A3EB0108019BA57304
:10BA3000194400F043FA43460E2BA8BF0E230DA96C
:10BA400007A80D94CDE90E5300F0D4F905226549FD
:10BA5000204606F013FC60B921466348FFF726FA3A
:10BA6000314607A8FFF710FF6048FFF71FFA0137BC
:10BA7000C3E705224946204606F000FC0028EBD02B
:10BA800007225146204606F0F9FB0028E4D00422A4
:10BA90005749204606F0F2FB40B921465248FFF7CD
:10BAA00005FA314607A8FFF721FFDDE70DF1A008F1
:10BAB00058F82510204606F077FA88B9002D40F096
:10BAC00075814C4A4FF496714B48FCF731FB214687
:10BAD0004A48FFF7EBF94FF47A60FCF76FFCC6E7D2
:10BAE0000135102DE4D1ECE700270DF1140838AB37
:10BAF00053F82730581C38D04FF02809DBF82010B5
:10BB000007A809FB031100F0D9F900230DAD294660
:10BB100007A86B602E60C5F8089000F06BF928ABA1
:10BB200053F827103048FFF7C1F97B1E0D2B19D8A9
:10BB3000DFE813F00E000E002F00140014001400B4
:10BB40003A001800720018001800E1000A01130101
:10BB50002B4A40F24B112848FCF7EAFA314607A875
:10BB6000FFF792FE2148FFF7A1F90137102FBED150
:10BB7000DBF818102348FFF799F9DBF81800FCF7F9
:10BB800025FC01462048FFF791F90DF53D7DBDE804
:10BB9000F08F1B4A4FF4AC711748FCF7C9FA3146D5
:10BBA00007A8FFF7A3FEDDE77369B3F5C87F05D3E8
:10BBB0004FF4AF71154A1048FCF7BAFA316907A87B
:10BBC00000F07CF973692946AB6000232C606B6040
:10BBD00007A800F00FF9C5E7B1390108B034010832
:10BBE000BC340108C6390108CC3901083C3B0108C6
:10BBF000DE390108E3390108F8380108F339010892
:10BC0000F13901081D3B01083E3B01080F3A0108CC
:10BC1000D0390108D63901086848FFF747F9509B29
:10BC20000193013305D1664A4FF4B3716548FCF7BF
:10BC30007FFA4F9B013305D1634A40F26711614897
:10BC4000FCF776FA4FF000097369DB080293029B58
:10BC5000994587DA316907A801EBC90100F02EF98F
:10BC60000023082107A8C5E901312946C5F800804D
:10BC700000F0C0F898F80430162B05D0534A4FF462
:10BC8000B9715048FCF754FAD8F80410019B090A1E
:10BC900003EB011107A800F011F9102200230AA9F3
:10BCA00007A8CDE90B320A9500F0A4F82B682344CD
:10BCB00018460393FFF7D0FA039B02468246D8F852
:10BCC00000104348FFF7F2F8029B013B4B4502DDB1
:10BCD0004048FFF7EBF8BAF1000F05D13E4A4FF4A8
:10BCE000BF713848FCF724FAD8F8003009F101098F
:10BCF000C3F800A0ABE77369316907A84FEA930A5C
:10BD000000F0DCF800230DF128095345019317DA00
:10BD100000230422294607A8C5E90132C5F800908E
:10BD200000F068F8D9F800102C48FFF7BFF8D9F8F0
:10BD3000002090472A48FFF7B9F8019B0133E4E758
:10BD40002848FFF7B3F80DE77369B3F5C87FFFF430
:10BD500035AF254A4FF4D0712DE7559B013305D1FE
:10BD6000224A40F2A7111748FCF7E2F94FF0000908
:10BD700073694FEA131AD145BFF6F4AE316907A8CB
:10BD800001EB091100F09AF8002210230AA907A874
:10BD9000CDE90B230A9500F02DF8D5E900121448DF
:10BDA0002144FFF783F809F10109E4E738AB43F8D0
:10BDB0002570326948AB43F8252058E6383A010827
:10BDC0004D3A0108F83801086F3A0108913A010824
:10BDD000B73A01083C3B0108D53A0108E03A0108AE
:10BDE000E73A0108EA3A01080F3A0108F03A010877
:10BDF000123B01082DE9F84F04460E460025DFF8F6
:10BE00005C80DFF85C90DFF85CA0B368AB4220DDBB
:10BE1000D4E901B77B1CA360B3689D4204DB4246B2
:10BE200059214846FCF784F933681BF807205A5516
:10BE3000A368B3F5805F0AD100236068A360FEF7B2
:10BE400071FD20B15246FE210348FCF771F901351E
:10BE5000DBE72046BDE8F88F6635010808350108A4
:10BE60002C3501084C35010870B505460E460024F6
:10BE7000FEF720FDAC60686001213046FEF72CFD26
:10BE800048B90648FFF712F86868FEF74BFDB0FAAC
:10BE900080F0400970BD2046FCE700BFFC3401087B
:10BEA0001FB500220123CDE90223036801919B689D
:10BEB00001A9984705B05DF804FB000010B50446E1
:10BEC000C1F30B00A060081AFEF7B0FD6068FEF732
:10BED00029FD38B1BDE81040034A4FF4857103488D
:10BEE000FCF726B910BD00BF4C35010866350108C6
:10BEF00010B50446034A05210348FCF719F920460A
:10BF000010BD00BFF1390108BC3B010810B5044663
:10BF1000034A0C210348FCF70BF9204610BD00BF73
:10BF2000F1390108BC3B010810B50C4601460B2055
:10BF3000F4F7E6F82146BDE810400C20F4F7E0B82D
:10BF400001460D20F4F7DCB800211520F4F7D8B82D
:10BF500001211520F4F7D4B838B51C460D46013A36
:10BF600042EA00410920F4F7CBF8611E41EA05419D
:10BF70000A20BDE83840F4F7C3B802490620F4F7B8
:10BF8000BFB800BF0000FCFF08B5014620B1012189
:10BF90000520F4F7B5F86421BDE808400520F4F762
:10BFA000AFB838B51C460D46013A42EA00410920B7
:10BFB000F4F7A6F8611E41EA05410A20BDE83840C1
:10BFC000F4F79EB8034A136803F03803184310606F
:10BFD000704700BF00200240044B1A6822F008029C
:10BFE0001A601A6810431860704700BF00200240B2
:10BFF000044B1A6822F010021A601A681043186085
:10C00000704700BF00200240034B044A5A6002F10F
:10C0100088325A60704700BF002002402301674504
:10C02000FFF7F2BF024A136943F0800313617047C0
:10C0300000200240FFF7F6BF014BD8698008704727
:10C0400000200240014B186A704700BF00200240E8
:10C05000024BD869C0F34000704700BF0020024087
:10C06000024B1868C0F34010704700BF0020024028
:10C07000044B1A6911B110431861704722EA00009D
:10C08000FAE700BF002002400128064B03D1D8691F
:10C0900000F001007047DB68034214BF012000205C
:10C0A000704700BF00200240014BD860704700BFBE
:10C0B00000200240084BDA68D10709D4DA68520739
:10C0C00008D4DB6813F0100F14BF0320042070475E
:10C0D000012070470220704700200240084BDA68B8
:10C0E000D10709D4DA68520708D4DB6813F0100FBF
:10C0F00014BF0320042070470120704702207047BE
:10C100000020024010B50446FFF7E8FF012806D1E1
:10C110000CB9052010BDFFF7E1FF013CF6E7002C4C
:10C1200008BF0520F6E738B505464FF43020FFF785
:10C13000E9FF042813D10A4C4FF43020236943F05F
:10C14000020323616561236943F040032361FFF724
:10C15000D9FF236923F00203DB04DB0C236138BD24
:10C160000020024010B54FF43020FFF7CBFF042829
:10C1700012D10A4C4FF43020236943F004032361A9
:10C18000236943F040032361FFF7BCFF236923F0D9
:10C190000403DB04DB0C236110BD00BF0020024060
:10C1A000FFF7E0BF38B5FFF753FF00284FF430200A
:10C1B0000CBFA5250025FFF7A5FF04282BD1164CA1
:10C1C000164B4FF43020A36003F18833A36023693A
:10C1D00043F020032361236943F040032361FFF709
:10C1E00091FF04280FD123694FF4005023F020035E
:10C1F000DB04DB0C2361236943F010032361084B4C
:10C200001D80FFF77FFF052805D0236923F0100369
:10C21000DB04DB0C236138BD0020024023016745AD
:10C2200000F8FF1F002373B506464FF400500D467B
:10C230000193FFF767FF04281BD10F4C4FF4005008
:10C24000236943F001032361ABB23380FFF75AFF48
:10C25000042808D102360196019B2D0C1D804FF455
:10C260000050FFF74FFF236923F00103DB04DB0CD1
:10C27000236102B070BD00BF0020024070B50546CA
:10C280004FF400500E46FFF73DFF04280FD1084C35
:10C290004FF40050236943F0010323612E80FFF720
:10C2A00031FF236923F00103DB04DB0C236170BD44
:10C2B0000020024070B506464FF400500D46FFF7CF
:10C2C00021FF042817D10C4C0C4BADB2A36003F135
:10C2D0008833A36023694FF4005043F010032361B7
:10C2E0003580FFF70FFF052805D0236923F01003E1
:10C2F000DB04DB0C236170BD002002402301674595
:10C3000010B504464FF40050FFF7FCFE04283BD163
:10C31000E443224B224AE1B29A6002F188329A60E9
:10C320001A69FF2942F010021A6123D1C4F30723CE
:10C33000FF2B07D01B4A4FF400505381FFF7E2FE5A
:10C3400004281FD1C4F30743FF2B07D0154A4FF42D
:10C3500000509381FFF7D6FE042813D1240EFF2C42
:10C3600013D104200D4A136923F01003DB04DB0C06
:10C37000136109E00B4B4FF400501981FFF7C2FE27
:10C380000428D3D00528EDD110BD064BA4B2DC8122
:10C390004FF40050FFF7B6FEF4E700BF0020024064
:10C3A0002301674500F8FF1F38B505464FF43020DC
:10C3B000FFF7A8FE04282ED11D4C1E4B4FF4302051
:10C3C000A36003F18833A360236943F02003236152
:10C3D000236943F040032361FFF794FE04281DD135
:10C3E000236923F02003DB04DB0C2361236943F082
:10C3F00010032361104B7DB100221A804FF43020CE
:10C40000FFF780FE052806D0094A136923F01003C0
:10C41000DB04DB0C136138BDA522EEE70528FAD05A
:10C42000236923F02003DB04DB0C2361F3E700BF67
:10C43000002002402301674500F8FF1FF8B5134CA8
:10C44000134B0746A36003F18833A3604FF40050F9
:10C450000E461546FFF756FE042815D1236947F00E
:10C46000F80743F0100323613E430A4B35435D80D8
:10C470004FF40050FFF746FE052805D0236923F04E
:10C480001003DB04DB0C2361F8BD00BF0020024079
:10C490002301674500F8FF1FFFF734BE08B5154BB1
:10C4A00098420BD101214FF4805000F06FFABDE8A3
:10C4B000084000214FF4805000F068BA0E4B9842BB
:10C4C0000BD101214FF4804000F06CFA00214FF4B1
:10C4D0008040BDE8084000F065BA084B984208D19A
:10C4E00001214FF4004000F05DFA00214FF40040BC
:10C4F000EFE708BD0030014000380040003C00403C
:10C50000038810B503F441524C880B8823438C8870
:10C510002343CC8823430C8923434C8923438C89B0
:10C520002343CC89234313430380838B23F4006389
:10C530001B041B0C83830B8A038210BD838BF0B515
:10C5400023F47B6323F00F038383022303848B682C
:10C55000868B022B87B005460C46B6B239D08B8845
:10C5600001A8002B14BF0227012700F0ABF9E388D4
:10C570000199B3F5007F18BF7B014FF00A0214BF89
:10C58000B1FBF3F30B0A5343A0680A22B3FBF0F3A9
:10C5900005339BB2B3FBF2F303F001021202C3F3C3
:10C5A0004F03991E89B2FE2924BF002202231343A0
:10C5B000E28813439BB262882B8423881343A288AA
:10C5C00043F400631343A28913431E43AE8307B0B1
:10C5D000F0BD0022E5E70023038043808380C38011
:10C5E000038143818381C381072303827047002332
:10C5F0000222C0E90033826083817047038819B149
:10C6000043F040030380704723F040031B041B0CDE
:10C61000F8E7838B19B143F480638383704723F475
:10C6200080631B041B0CF8E70B090121994089B2B8
:10C63000838812B119438180704723EA0101FAE728
:10C64000838812B119438180704723EA0101FAE718
:10C6500081817047808970474FF6FF639942038854
:10C6600005BF23F480731B0443F480731B0C038009
:10C670007047838819B143F004038380704723F027
:10C6800004031B041B0CF8E7038823F400631B045A
:10C690001B0C03800388194301807047038843F40F
:10C6A000805303807047038819B143F4005303801B
:10C6B000704723F400531B041B0CF8E7012914BF37
:10C6C000008B808A80B27047008A70470388B1F57A
:10C6D000804F1BBF23F480431B0443F480431B0C97
:10C6E000038070470389194214BF0120002070475E
:10C6F000C94389B2018170470123828810B504893A
:10C7000001F00F0003FA00F0204092B205D00909B1
:10C710008B401A4214BF0120002010BD01F00F030E
:10C7200001219940C94389B2018170470D4B1A68B4
:10C7300042F001021A6059680B4A0A405A601A68AE
:10C7400022F0847222F480321A601A6822F4802265
:10C750001A605A6822F4FE025A604FF41F029A606F
:10C76000704700BF001002400000FFF80C4BB0F50E
:10C77000803F1A6822F480321A601A6822F48022FC
:10C780001A6003D0B0F5802F05D070471A6842F4C4
:10C7900080321A6070471A6842F4A022F9E700BF9D
:10C7A00000100240034A136823F0F80343EAC00074
:10C7B0001060704700100240014B1860704700BFC6
:10C7C00000004242034A536823F47C131943014397
:10C7D0005160704700100240014B1860704700BF65
:10C7E00060004242034A536823F003031843506039
:10C7F000704700BF00100240024B586800F00C0068
:10C80000704700BF00100240034A536823F0F00352
:10C8100018435060704700BF00100240034A53683D
:10C8200023F4E06318435060704700BF00100240DB
:10C83000034A536823F4605343EAC00050607047D2
:10C8400000100240044B1A7811B110431870704761
:10C8500022EA0000FAE700BF09100240014B18600D
:10C86000704700BFD8004242034A536823F4404354
:10C8700018435060704700BF001002400022064B72
:10C8800001281A701A7002D0042802D0704718705C
:10C89000704705221A70704720100240014B186043
:10C8A000704700BF80044242024A136A1843106274
:10C8B000704700BF00100240014B1860704700BF76
:10C8C0003C0442421B4A10B5536803F00C03082B8A
:10C8D0001FD0194B036053681849C3F30313CC5C92
:10C8E0000368E34043605468C4F302240C5D23FAF8
:10C8F00004F484605468C4F3C2240C5DE340C36054
:10C900005268C2F3813211440A7CB3FBF2F3036133
:10C9100010BD53685168C3F38343CC0303F1020392
:10C9200002D407494B43D5E751688903F9D402493A
:10C93000F8E700BF0010024000127A000300002058
:10C9400000093D00044B5A6911B11043586170470A
:10C9500022EA0000FAE700BF00100240044B9A6987
:10C9600011B110439861704722EA0000FAE700BF56
:10C9700000100240044BDA6911B11043D8617047CE
:10C9800022EA0000FAE700BF00100240044BDA6818
:10C9900011B11043D860704722EA0000FAE700BFE7
:10C9A00000100240044B1A6911B11043186170471E
:10C9B00022EA0000FAE700BF00100240014B1860B5
:10C9C000704700BF40044242014B1860704700BFEF
:10C9D0004C004242014B1870704700BF07100240E4
:10C9E0004209012A074B07D11B6800F01F0023FAF8
:10C9F00000F000F001007047022A0CBF1B6A5B6A5E
:10CA0000F3E700BF00100240002307B50193312077
:10CA1000FFF7E6FF019B01330193019BB3F5A06F84
:10CA200001D00028F3D03120FFF7DAFF003018BF23
:10CA3000012003B05DF804FB024A536A43F080739F
:10CA40005362704700100240034B9B68184214BFAA
:10CA500001200020704700BF00100240014B1870F9
:10CA6000704700BF0A10024010B50446FBF778FD7E
:10CA70002046BDE81040FBF74FBF70B50446037A6F
:10CA8000087A03F0100300F01000181A0D461BD1AD
:10CA900009341449204605F087FA00B309351149D5
:10CAA000284605F081FAB8B12E21204605F008FA93
:10CAB0002E210646284605F003FA01462EB128B17C
:10CAC000304605F071FA08B170BD40B929462046DC
:10CAD000BDE8704005F068BA4FF0FF30F4E7012080
:10CAE000F2E700BF003D0108002310B510F8012B4C
:10CAF000A2B1A2F13001CCB21B01092C98BF0B43AB
:10CB0000A2F1610105299CBFA2F157010B43A2F1DB
:10CB100041010529EAD8373A1343E7E7184610BD23
:10CB200010B5D0F80411D0F8083130F8022B0B44BE
:10CB3000134403EB1223002203F0FF03914205DDAF
:10CB400010F8014B01322344DBB2F7E75842C0B280
:10CB500010BD70B5B3F5807F0E461D461146049C8E
:10CB600011D884B1C4F8080120461A4620F8026B97
:10CB700005F0C6F8C4F804512046FFF7D1FF84F849
:10CB80000C01002070BD6FF00300FBE72DE9F047BA
:10CB90000E4692B00546002800F0A3800024DFF87E
:10CBA000549102AFD6E90102531CB36010F8028021
:10CBB000B3F5805F04F8078009D10023B360FDF767
:10CBC000B1FE20B14A46CF214948FBF7B1FAB8F18E
:10CBD0000A0F02D001343F2CE4D112AB234413F8E6
:10CBE000403C0D2B08BF04F1FF3412AB234400245A
:10CBF00003F8404C9DF80860002E75D0384605F0CB
:10CC00000FFB082804D86FF0020012B0BDE8F087CF
:10CC10003A2EF8D102220DF10901684605F078FBA1
:10CC20001022214668468DF80240FFF75DFF04227E
:10CC300080460DF10B01684605F06AFB1022214683
:10CC400068468DF80440FFF74FFF022228800DF15F
:10CC50000F01684605F05CFB1022214668468DF8FE
:10CC60000240FFF741FFC5F80801384605F0D8FA41
:10CC70004FEA480606F10B039842C4D3A24605F1D9
:10CC80000209444512DA0DF1110303EB44010222BB
:10CC9000684605F03DFB1022002168468DF802A091
:10CCA000FFF722FF013409F8010BEAE7002406F13F
:10CCB000090102223944C5F80481684605F028FBC1
:10CCC0001022214668468DF80240FFF70DFFC6B2DC
:10CCD00085F80C612846FFF723FF864293D1204652
:10CCE00093E76FF0030090E76FF004008DE700BF5B
:10CCF000663501084C350108A0F14103192B9CBF92
:10CD00002030C0B2704738B50C46054620B90F4AEE
:10CD10002A210F48FBF70CFA24B90E4A2B210C48A4
:10CD2000FBF706FA013D013C15F8012F1046FFF70D
:10CD3000E3FF014614F8010FFFF7DEFF814203D144
:10CD4000002AF1D1104600E0081A38BD033D010861
:10CD5000103D0108263D0108054B4FF428120364DD
:10CD600003F5806383644FF400134264C364704727
:10CD7000AC2B00204FF4801C1FB50446064B0091DD
:10CD8000CDE902C3054902ABFBF7AFFB2046FFF735
:10CD9000E3FF04B010BD00BF4001F000333D0108C7
:10CDA0007047704710B50446FBF727FB2046074B3A
:10CDB00040F8503BFBF721FB054B0649236504F186
:10CDC000200005F0CFF9204610BD00BF043C01084B
:10CDD000E83B01083D3B01086F2313B5ADF8003077
:10CDE00071230C46ADF802000E30ADF8060068461F
:10CDF000ADF80430FBF708FFBDF8003021464033A2
:10CE0000ADF80030BDF8043068464033ADF804306A
:10CE1000FBF7FAFEBDF8003021465033ADF8003084
:10CE2000BDF8043068465033ADF80430FBF7ECFE33
:10CE300002B010BD4FF49C7230B585B0ADF8002043
:10CE40004FF4A0720446B0F90630ADF80420ADF8F6
:10CE5000023044F20822D23341F282016846ADF832
:10CE6000063003F023F8B4F844200E2A2EDD1A4BC6
:10CE70004FF6FF71D3F800389B0293FBF2F003F5F5
:10CE8000605393FBF2F3BDF80020BDF9025002326B
:10CE9000ADF80820BDF80420ACB2023AADF80C2081
:10CEA000BDF90620521B4FF480655043534390FB5D
:10CEB000F5F093FBF5F32044ADF80A00234402A8F3
:10CEC000ADF80E30FBF7A0FE05B030BD48F21041C2
:10CED0004FF480630020D6E7AC2B0020094AD2F83B
:10CEE0000438D2F80018591A0D2904DD0D3BC2F898
:10CEF000003801207047581C01D00029F7DB0020C2
:10CF0000704700BFAC2B00202DE9F04F01F1090460
:10CF100091B0884620462E211646039304F0D0FF98
:10CF200072490546204605F03FF898F808B00DF123
:10CF30002009CBF3001A05AF2146002840F0A48059
:10CF4000484605F00FF96A49384605F00BF9012506
:10CF5000039B4FF6E074002B18BF00244FF6FF73BD
:10CF6000BAF1000F18BF1C464BF280531BF0020FA2
:10CF700018BF1C460023ADF818304FF49C73ADF871
:10CF80001C3006F10E03ADF81E30039BADF81A609D
:10CF9000002B00F094804FF4E7424FF4844106A840
:10CFA00002F084FF53493846FFF7ADFE70B1524995
:10CFB0003846FFF7A8FE48B150493846FFF7A3FEB0
:10CFC00020B14F493846FFF79EFE08B94FF4FC6484
:10CFD0004FF6FF73BAF1000F18BF1C46CDF8009052
:10CFE0004FF61E03224631460420FBF7C5FE9DF88E
:10CFF00014303BB100974FF61E03224631465020B5
:10D00000FBF7BAFE0CAF002D5ED03E49384605F066
:10D01000A9F8224600974FF61E0331467820FBF709
:10D02000ABFEB8F8042042B342F621039A4224D062
:10D030005312143B0093344902F01F033846C2F3E5
:10D040004312FEF7F9F84FF61E03224631460097C9
:10D05000B820FBF791FEB8F806202C49C2F345131F
:10D060003846D20AFEF7E8F800974FF61E0322462C
:10D0700031464FF48470FBF77FFE21463046FFF7C0
:10D08000ABFE11B0BDE8F08F48468DB105F06AF8EF
:10D090002C1B10AB1C44002335F8011F04F8203C66
:10D0A000AA78ADF814101D46BA708DF817304FE706
:10D0B00005F058F80E49384605F054F848E744F2B0
:10D0C000082241F282016AE7BAF1000F01D010494B
:10D0D0009CE7D8F800200F4B38469A4292BF0E4981
:10D0E000920A0E49FEF7A8F893E700BF003D010839
:10D0F0003D3B01083F3D0108433D0108EC3D01086F
:10D10000473D01084B3D0108603D01086F3D0108A6
:10D11000503D01083F420F00573D01085B3D0108AB
:10D1200010B50A44401A914201EB000303D011F8F4
:10D13000014B1C70F7E710BDFCF746B808B5030EAD
:10D14000202B03D1FFF7ECFF012008BD082B02D1F3
:10D15000FCF73AF8F8E7034A40F2F9210248FAF7F7
:10D16000E7FFF1E775390108103D010870B51B4B69
:10D17000C8B001A80193FEF777FE0546E0B1FCF7C1
:10D1800009F8002401A904A8FFF700FD08BB469B8D
:10D19000042B1BD8DFE803F0031A0D0D1300BDF8B4
:10D1A0001000459A0DF1120100EB0440FFF7C6FF95
:10D1B00060B9FDF701FC0025284648B070BD9DF818
:10D1C00012309DF8134004EB0324A4B2469B012BBC
:10D1D000D8D1FBF7E7FFFDF7EFFBEDE7B03401082F
:10D1E0002DE9F0439846C9B0224B01A81746019398
:10D1F000FEF73AFE814690B9484649B0BDE8F08353
:10D200001D461C4601A904A8FFF7C0FC60B1FDF74C
:10D21000D3FB509B3C60C8F800401D60ECE74FF02A
:10D22000FF3500262C46EDE7469B042B1ED8DFE891
:10D2300003F0031D18181000BDF81030621C03EB3A
:10D240000643DDD09C4228BF1C469D4238BF1D4688
:10D25000D8E79DF812309DF8136006EB0326B6B2AE
:10D26000D0E7FDF7A9FB4FF00009C5E7012BC9D1B5
:10D27000CDE700BFB03401082DE9F04F564BBFB0E9
:10D280000DF1F80848F8EC3D4046FEF7EDFD82460A
:10D2900000287BD011AB1E93342200231EA94046E8
:10D2A000CDE91F32FEF7A6FDBDF86E30202B05D06C
:10D2B0004A4A40F277314A48FAF73AFFBDF87030EF
:10D2C000042B05D9474A4FF45E714548FAF730FF01
:10D2D000002420272646BDF87050A5420BDD1EAB6A
:10D2E00003EB441309A940460993CDE90A670134C9
:10D2F000FEF780FDEFE74FF0000B6D0134351EACFB
:10D30000BDF870305B4563DD6368002B5CD0FBF7D4
:10D3100041FF4FF0000909AF6668AE420CDD761B95
:10D32000202EA8BF202606A940460697CDE90796DD
:10D330003544FEF75FFDEFE705D02B4A4FF46471EB
:10D340002748FAF7F5FE0026D4F80C902369B3427B
:10D3500022DD06F120029342ACBF20239B1B0893E1
:10D360000193002306A9404607930697FEF742FD66
:10D37000019B39461A4648461D441E44FBF724FFCC
:10D38000019B38B9FDF718FB4FF0000A50463FB03B
:10D39000BDE8F08F9944D9E720220021384604F0F7
:10D3A00025FD6269B2420DDD06F120039A42ACBF51
:10D3B0002022921B394648461644FBF705FF0028F9
:10D3C000EFD1DFE7FBF7EEFE0BF1010B203497E71F
:10D3D000FDF7F2FADAE700BFB0340108CE380108F1
:10D3E000103D0108793D0108C23D01082DE9F04FCB
:10D3F0000D46A1B02E21284604F0BCFF20B900271D
:10D40000384621B0BDE8F08F304904F0ABFE304B18
:10D4100020AE46F8783D29463046FEF725FD002827
:10D42000EDD008AB109300240A230DF140094946C2
:10D430003046CDE91143FEF7DDFCFDF7BDFA9DF85E
:10D4400020308DF82A40302BD9D19DF82130782B0F
:10D45000D5D10DF12200FDF72AFB2E21804628466A
:10D4600004F088FF0028CAD01A4904F07BFE294640
:10D470003046FEF7F9FC07460028C0D0FDF7D0FA89
:10D48000A3468246FBF786FE544519DAAAEB04054B
:10D49000402DA8BF402505A93046CDF81490CDE910
:10D4A00006B5FEF7A7FC2A4649464046FBF78CFE28
:10D4B00018B90190FDF780FAA1E72C44A844E3E7EE
:10D4C000FBF770FEFDF778FA9AE700BFEB3D010825
:10D4D000B0340108F03D01082DE9F0410D468EB051
:10D4E0002E2128461646984604F044FF20B9002411
:10D4F00020460EB0BDE8F081224904F033FE224BF5
:10D500000EAC44F8383D29462046FEF7ADFC20B964
:10D5100029461E48FDF7CAFCE9E706AB039300273E
:10D520000A2303A92046CDE90473FEF763FCFDF747
:10D5300043FA9DF818308DF82270302BD7D19DF822
:10D540001930782BD3D10DF11A00FDF7B0FA2E2146
:10D550003060284604F00EFF0028C8D00C4904F0C3
:10D5600001FE20462946FEF77FFC04460028CFD066
:10D57000FDF756FA0546FDF71FFA30682844C8F84B
:10D580000000B5E7EB3D0108B0340108F53D0108A6
:10D59000F03D010830B50B7897B004461546B3B995
:10D5A000464906A804F0DEFD294606A804F068FCFA
:10D5B0002E21284604F0DEFE88B91F230093404B3D
:10D5C0002146404A04F1500000F014FC3BE006A85C
:10D5D00004F0C8FD3C4906A804F052FCE4E7451CF1
:10D5E0003A492846FFF78FFB002847D0384928469C
:10D5F000FFF789FB00B337492846FFF784FB10B3D8
:10D6000035492846FFF77FFBE8B134492846FFF744
:10D610007AFB002840D032492846FFF774FB90B1CE
:10D6200028463049FFF76FFB04F150050028C4D1AC
:10D630001F2300932C4B1DE006A92046FEF788F916
:10D640002046FAF78DFF17B030BD06A92046FFF738
:10D650008DFD18B91F230093244BB1E7039924488B
:10D66000FDF724FC0398FAF7B1FEE9E740F2FF73F7
:10D670000093204B134A21462846A5E705AB0093AB
:10D6800003AA04AB06A92046FFF7AAFD0028DCD1B7
:10D690001F230093184B93E705AB04AA06A9204665
:10D6A000FFF71AFF06A92046FFF7A0FE04F1500578
:10D6B0000028DBD11F230093104BDBE73D3B010823
:10D6C0000A3E0108A23E0108083E01083F3D01084C
:10D6D000433D01081E3E0108223E0108EC3D0108C1
:10D6E000263E0108473D0108833E01083A3E0108F5
:10D6F0004D3E0108593E01082A3E0108743E0108CA
:10D700002DE9F04F1C469FB02B4B1EAD45F86C3DEC
:10D7100028469146289FFEF7A7FB8046002846D062
:10D7200011AB0993342200230DF1240A51462846F7
:10D73000CDE90A32FEF75EFBBDF86E30202B05D036
:10D740001E4A40F21D411E48FAF7F2FC0026179BC4
:10D750004FF0200BC9F800304FF0FF333246236002
:10D76000BDF87030B3421DDD06A92846CDE9072B70
:10D770000192CDF818A0FEF73DFB0A9B019A7BB100
:10D7800020680C990E9BB0F1FF3F0B4402D1216041
:10D790003B6005E0884288BF216039689942F7D331
:10D7A0000136DDE72368C9F80030FDF705F940468A
:10D7B0001FB0BDE8F08F00BFB0340108CE380108BB
:10D7C000103D01080020704770470020704701207D
:10D7D0007047F0B505468BB008460C46FDF7FAF8E1
:10D7E0000646B0BBA5F84400237804ACA3B11A499F
:10D7F0000DF1190004F0B6FC10238DF818300AABB7
:10D8000013E907008DE80700CDE9046605F1400043
:10D8100094E80E0000F01CFB05F1400707AE20461F
:10D82000FDF7E8F890B99DF819302E2BF7D096E85F
:10D8300007008DE80700384694E80E0000F008FB6A
:10D84000B5F84420B5F846309A42E8D301200BB031
:10D85000F0BD0020FBE700BF003D010808B502490C
:10D86000403000F019FB08BD7BCA000844F6454370
:10D870009A4210B5044608D100F12001FFF7A9FF34
:10D880002046BDE81040FFF7E9BF10BD2DE9F04F7D
:10D8900089B00746FAF756FE7A4E30B1D6F804380A
:10D8A000013304BF0023C6F804380025764B44F248
:10D8B000082241F2820102A8CDE9025302F0F6FAF1
:10D8C000724B2A46009329464BF296532846FBF7A3
:10D8D00031FADFF8CC814FF61E034BF296522946FF
:10D8E000CDF800800446FBF7BEFA0444083408F182
:10D8F000720300934BF296524FF61E0329462046C0
:10D90000FBF7B1FA624B044400932A464BF296535C
:10D9100029462046FBF70EFA07F120030444009342
:10D920002A464BF2965329462046FBF725FA4FF636
:10D930001E034BF296522946CDF800802044FBF797
:10D9400092FA42F204124FF48010524B1146CDE984
:10D95000040304A802F0AAFA4F4B40F2FF720093AE
:10D9600010214FF61E030420FBF7E4F94FF6E17196
:10D970001020FFF731FAD6F80438D6F800289A1AA2
:10D980000D2AC4BFA3F10D02C6F80028591C06D009
:10D99000D6F800289A1A002AB8BFC6F800384FF007
:10D9A00000081E2407F14009D6F80018B7F84430E3
:10D9B0004144994204F10E0515DB0E2325464FF034
:10D9C000000B4FF49C7A04F1D20903FB189904F17F
:10D9D0000E06B14522B233B23DD16FF00D03C4350E
:10D9E00003FB085514E0484600F09AFAD6F80038D0
:10D9F000D6F8042843449A1A53425341014622461A
:10DA00003846FFF781FAE22D08F101082C46CBD108
:10DA10003846FFF70FFA002344F20822ADF8183019
:10DA20004FF4A0731146ADF81C3006A805F10E03A3
:10DA3000ADF81E30ADF81A5002F038FA174B48F224
:10DA40001042009329464FF61E030420FBF772F99B
:10DA500009B0BDE8F08FADF81A2041F2820144F21E
:10DA6000082206A8ADF81E30ADF818B0ADF81CA01D
:10DA700002F01CFA20464FF6E171FFF7ADF934468B
:10DA8000A5E700BFAC2B0020400110009C3E010820
:10DA9000083E010838012000AA3E0108D03E0108D6
:10DAA0001C3C010870B50C4605464030164600F097
:10DAB00037FA074BD3F800183346641A0E21614336
:10DAC00001F11E0201462846BDE87040FFF71CBA6E
:10DAD000AC2B0020F8B505460E46002400F14007A7
